{
  "contractName": "CrowdFunding",
  "abi": [
    {
      "inputs": [
        {
          "internalType": "contract IERC20",
          "name": "_crowdFundingToken",
          "type": "address"
        }
      ],
      "payable": false,
      "stateMutability": "nonpayable",
      "type": "constructor"
    },
    {
      "constant": true,
      "inputs": [],
      "name": "crowdFundingToken_",
      "outputs": [
        {
          "internalType": "contract IERC20",
          "name": "",
          "type": "address"
        }
      ],
      "payable": false,
      "stateMutability": "view",
      "type": "function"
    },
    {
      "constant": false,
      "inputs": [
        {
          "internalType": "uint256",
          "name": "_projectId",
          "type": "uint256"
        },
        {
          "internalType": "string",
          "name": "_ipfsHash",
          "type": "string"
        }
      ],
      "name": "setIpfsHash",
      "outputs": [
        {
          "internalType": "bool",
          "name": "",
          "type": "bool"
        }
      ],
      "payable": false,
      "stateMutability": "nonpayable",
      "type": "function"
    },
    {
      "constant": true,
      "inputs": [
        {
          "internalType": "uint256",
          "name": "_projectId",
          "type": "uint256"
        }
      ],
      "name": "getOwner",
      "outputs": [
        {
          "internalType": "address",
          "name": "",
          "type": "address"
        }
      ],
      "payable": false,
      "stateMutability": "view",
      "type": "function"
    },
    {
      "constant": true,
      "inputs": [
        {
          "internalType": "uint256",
          "name": "_projectId",
          "type": "uint256"
        }
      ],
      "name": "getName",
      "outputs": [
        {
          "internalType": "string",
          "name": "",
          "type": "string"
        }
      ],
      "payable": false,
      "stateMutability": "view",
      "type": "function"
    },
    {
      "constant": true,
      "inputs": [
        {
          "internalType": "uint256",
          "name": "_projectId",
          "type": "uint256"
        }
      ],
      "name": "isApproved",
      "outputs": [
        {
          "internalType": "bool",
          "name": "",
          "type": "bool"
        }
      ],
      "payable": false,
      "stateMutability": "view",
      "type": "function"
    },
    {
      "constant": true,
      "inputs": [
        {
          "internalType": "uint256",
          "name": "_projectId",
          "type": "uint256"
        }
      ],
      "name": "isOpen",
      "outputs": [
        {
          "internalType": "bool",
          "name": "",
          "type": "bool"
        }
      ],
      "payable": false,
      "stateMutability": "view",
      "type": "function"
    },
    {
      "constant": true,
      "inputs": [
        {
          "internalType": "uint256",
          "name": "_projectId",
          "type": "uint256"
        }
      ],
      "name": "getGoal",
      "outputs": [
        {
          "internalType": "uint256",
          "name": "",
          "type": "uint256"
        }
      ],
      "payable": false,
      "stateMutability": "view",
      "type": "function"
    },
    {
      "constant": true,
      "inputs": [
        {
          "internalType": "uint256",
          "name": "_projectId",
          "type": "uint256"
        }
      ],
      "name": "getBalance",
      "outputs": [
        {
          "internalType": "uint256",
          "name": "",
          "type": "uint256"
        }
      ],
      "payable": false,
      "stateMutability": "view",
      "type": "function"
    },
    {
      "constant": true,
      "inputs": [
        {
          "internalType": "uint256",
          "name": "_projectId",
          "type": "uint256"
        },
        {
          "internalType": "address",
          "name": "_funder",
          "type": "address"
        }
      ],
      "name": "getFunderBalance",
      "outputs": [
        {
          "internalType": "uint256",
          "name": "",
          "type": "uint256"
        }
      ],
      "payable": false,
      "stateMutability": "view",
      "type": "function"
    },
    {
      "constant": true,
      "inputs": [
        {
          "internalType": "uint256",
          "name": "_projectId",
          "type": "uint256"
        }
      ],
      "name": "getFunders",
      "outputs": [
        {
          "internalType": "address[]",
          "name": "",
          "type": "address[]"
        }
      ],
      "payable": false,
      "stateMutability": "view",
      "type": "function"
    },
    {
      "constant": true,
      "inputs": [
        {
          "internalType": "uint256",
          "name": "_projectId",
          "type": "uint256"
        }
      ],
      "name": "getIpfsHash",
      "outputs": [
        {
          "internalType": "string",
          "name": "",
          "type": "string"
        }
      ],
      "payable": false,
      "stateMutability": "view",
      "type": "function"
    },
    {
      "constant": true,
      "inputs": [],
      "name": "getLastProjectId",
      "outputs": [
        {
          "internalType": "uint256",
          "name": "",
          "type": "uint256"
        }
      ],
      "payable": false,
      "stateMutability": "view",
      "type": "function"
    },
    {
      "constant": true,
      "inputs": [
        {
          "internalType": "address",
          "name": "_owner",
          "type": "address"
        }
      ],
      "name": "getOwnerProjects",
      "outputs": [
        {
          "internalType": "uint256[]",
          "name": "",
          "type": "uint256[]"
        }
      ],
      "payable": false,
      "stateMutability": "view",
      "type": "function"
    },
    {
      "constant": true,
      "inputs": [
        {
          "internalType": "address",
          "name": "_user",
          "type": "address"
        }
      ],
      "name": "getUserFundedProjects",
      "outputs": [
        {
          "internalType": "uint256[]",
          "name": "",
          "type": "uint256[]"
        }
      ],
      "payable": false,
      "stateMutability": "view",
      "type": "function"
    },
    {
      "constant": false,
      "inputs": [
        {
          "internalType": "string",
          "name": "_name",
          "type": "string"
        },
        {
          "internalType": "uint32",
          "name": "_goal",
          "type": "uint32"
        },
        {
          "internalType": "string",
          "name": "_ipfsHash",
          "type": "string"
        }
      ],
      "name": "create",
      "outputs": [
        {
          "internalType": "bool",
          "name": "",
          "type": "bool"
        }
      ],
      "payable": false,
      "stateMutability": "nonpayable",
      "type": "function"
    },
    {
      "constant": false,
      "inputs": [
        {
          "internalType": "uint256",
          "name": "_projectId",
          "type": "uint256"
        }
      ],
      "name": "approve",
      "outputs": [
        {
          "internalType": "bool",
          "name": "",
          "type": "bool"
        }
      ],
      "payable": false,
      "stateMutability": "nonpayable",
      "type": "function"
    },
    {
      "constant": false,
      "inputs": [
        {
          "internalType": "uint256",
          "name": "_projectId",
          "type": "uint256"
        },
        {
          "internalType": "uint256",
          "name": "_amount",
          "type": "uint256"
        }
      ],
      "name": "deposit",
      "outputs": [
        {
          "internalType": "bool",
          "name": "",
          "type": "bool"
        }
      ],
      "payable": false,
      "stateMutability": "nonpayable",
      "type": "function"
    },
    {
      "constant": false,
      "inputs": [
        {
          "internalType": "uint256",
          "name": "_projectId",
          "type": "uint256"
        },
        {
          "internalType": "uint256",
          "name": "_amount",
          "type": "uint256"
        }
      ],
      "name": "withdraw",
      "outputs": [
        {
          "internalType": "bool",
          "name": "",
          "type": "bool"
        }
      ],
      "payable": false,
      "stateMutability": "nonpayable",
      "type": "function"
    },
    {
      "constant": false,
      "inputs": [
        {
          "internalType": "uint256",
          "name": "_projectId",
          "type": "uint256"
        }
      ],
      "name": "close",
      "outputs": [
        {
          "internalType": "bool",
          "name": "",
          "type": "bool"
        }
      ],
      "payable": false,
      "stateMutability": "nonpayable",
      "type": "function"
    },
    {
      "constant": false,
      "inputs": [
        {
          "internalType": "uint256",
          "name": "_projectId",
          "type": "uint256"
        }
      ],
      "name": "distributeFunding",
      "outputs": [
        {
          "internalType": "bool",
          "name": "",
          "type": "bool"
        }
      ],
      "payable": false,
      "stateMutability": "nonpayable",
      "type": "function"
    }
  ],
  "bytecode": "0x608060405234801561001057600080fd5b506040516126633803806126638339818101604052602081101561003357600080fd5b8101908080519060200190929190505050806000806101000a81548173ffffffffffffffffffffffffffffffffffffffff021916908373ffffffffffffffffffffffffffffffffffffffff1602179055506000600281905550506125c78061009c6000396000f3fe608060405234801561001057600080fd5b506004361061012c5760003560e01c80636b8ff574116100ad578063d15e468011610071578063d15e468014610855578063d450fbc9146108ee578063df6ed6cb14610995578063e2bbb158146109d7578063f801f6a214610a275761012c565b80636b8ff5741461066a5780637910867b14610711578063a11b2c5514610757578063b759f954146107a1578063c41a360a146107e75761012c565b80631e010439116100f45780631e01043914610476578063246f220b146104b85780633a7b6c7414610551578063441a3e70146105d45780634d6861a6146106245761012c565b80630385c0de14610131578063066d2e5c1461020e5780630aebeb4e146102545780630be09b7c1461029a5780631d6b928514610414575b600080fd5b6101f46004803603604081101561014757600080fd5b81019080803590602001909291908035906020019064010000000081111561016e57600080fd5b82018360208201111561018057600080fd5b803590602001918460018302840111640100000000831117156101a257600080fd5b91908080601f016020809104026020016040519081016040528093929190818152602001838380828437600081840152601f19601f820116905080830192505050505050509192919290505050610a45565b604051808215151515815260200191505060405180910390f35b61023a6004803603602081101561022457600080fd5b8101908080359060200190929190505050610af3565b604051808215151515815260200191505060405180910390f35b6102806004803603602081101561026a57600080fd5b8101908080359060200190929190505050610d25565b604051808215151515815260200191505060405180910390f35b6103fa600480360360608110156102b057600080fd5b81019080803590602001906401000000008111156102cd57600080fd5b8201836020820111156102df57600080fd5b8035906020019184600183028401116401000000008311171561030157600080fd5b91908080601f016020809104026020016040519081016040528093929190818152602001838380828437600081840152601f19601f820116905080830192505050505050509192919290803563ffffffff1690602001909291908035906020019064010000000081111561037457600080fd5b82018360208201111561038657600080fd5b803590602001918460018302840111640100000000831117156103a857600080fd5b91908080601f016020809104026020016040519081016040528093929190818152602001838380828437600081840152601f19601f820116905080830192505050505050509192919290505050610e8c565b604051808215151515815260200191505060405180910390f35b6104606004803603604081101561042a57600080fd5b8101908080359060200190929190803573ffffffffffffffffffffffffffffffffffffffff1690602001909291905050506110c9565b6040518082815260200191505060405180910390f35b6104a26004803603602081101561048c57600080fd5b8101908080359060200190929190505050611181565b6040518082815260200191505060405180910390f35b6104fa600480360360208110156104ce57600080fd5b81019080803573ffffffffffffffffffffffffffffffffffffffff169060200190929190505050611218565b6040518080602001828103825283818151815260200191508051906020019060200280838360005b8381101561053d578082015181840152602081019050610522565b505050509050019250505060405180910390f35b61057d6004803603602081101561056757600080fd5b810190808035906020019092919050505061134a565b6040518080602001828103825283818151815260200191508051906020019060200280838360005b838110156105c05780820151818401526020810190506105a5565b505050509050019250505060405180910390f35b61060a600480360360408110156105ea57600080fd5b810190808035906020019092919080359060200190929190505050611465565b604051808215151515815260200191505060405180910390f35b6106506004803603602081101561063a57600080fd5b81019080803590602001909291905050506116f9565b604051808215151515815260200191505060405180910390f35b6106966004803603602081101561068057600080fd5b810190808035906020019092919050505061179d565b6040518080602001828103825283818151815260200191508051906020019080838360005b838110156106d65780820151818401526020810190506106bb565b50505050905090810190601f1680156107035780820380516001836020036101000a031916815260200191505b509250505060405180910390f35b61073d6004803603602081101561072757600080fd5b81019080803590602001909291905050506118cc565b604051808215151515815260200191505060405180910390f35b61075f611970565b604051808273ffffffffffffffffffffffffffffffffffffffff1673ffffffffffffffffffffffffffffffffffffffff16815260200191505060405180910390f35b6107cd600480360360208110156107b757600080fd5b8101908080359060200190929190505050611995565b604051808215151515815260200191505060405180910390f35b610813600480360360208110156107fd57600080fd5b8101908080359060200190929190505050611a8e565b604051808273ffffffffffffffffffffffffffffffffffffffff1673ffffffffffffffffffffffffffffffffffffffff16815260200191505060405180910390f35b6108976004803603602081101561086b57600080fd5b81019080803573ffffffffffffffffffffffffffffffffffffffff169060200190929190505050611b45565b6040518080602001828103825283818151815260200191508051906020019060200280838360005b838110156108da5780820151818401526020810190506108bf565b505050509050019250505060405180910390f35b61091a6004803603602081101561090457600080fd5b8101908080359060200190929190505050611c77565b6040518080602001828103825283818151815260200191508051906020019080838360005b8381101561095a57808201518184015260208101905061093f565b50505050905090810190601f1680156109875780820380516001836020036101000a031916815260200191505b509250505060405180910390f35b6109c1600480360360208110156109ab57600080fd5b8101908080359060200190929190505050611da6565b6040518082815260200191505060405180910390f35b610a0d600480360360408110156109ed57600080fd5b810190808035906020019092919080359060200190929190505050611e3d565b604051808215151515815260200191505060405180910390f35b610a2f6122c8565b6040518082815260200191505060405180910390f35b60006002548310610abe576040517f08c379a000000000000000000000000000000000000000000000000000000000815260040180806020018281038252601f8152602001807f736574497066734861736828293a20496e76616c69642050726f6a656374210081525060200191505060405180910390fd5b81600160008581526020019081526020016000206007019080519060200190610ae89291906122d2565b506001905092915050565b600060025482108015610b2d57506001600083815260200190815260200160002060020160019054906101000a900460ff16151560001515145b8015610b6057506001600083815260200190815260200160002060020160009054906101000a900460ff16151560011515145b8015610bcd57506001600083815260200190815260200160002060000160009054906101000a900473ffffffffffffffffffffffffffffffffffffffff1673ffffffffffffffffffffffffffffffffffffffff163373ffffffffffffffffffffffffffffffffffffffff16145b610c22576040517f08c379a00000000000000000000000000000000000000000000000000000000081526004018080602001828103825260568152602001806124a36056913960600191505060405180910390fd5b6000809054906101000a900473ffffffffffffffffffffffffffffffffffffffff1673ffffffffffffffffffffffffffffffffffffffff1663095ea7b33360016000868152602001908152602001600020600401546040518363ffffffff1660e01b8152600401808373ffffffffffffffffffffffffffffffffffffffff1673ffffffffffffffffffffffffffffffffffffffff16815260200182815260200192505050602060405180830381600087803b158015610ce057600080fd5b505af1158015610cf4573d6000803e3d6000fd5b505050506040513d6020811015610d0a57600080fd5b81019080805190602001909291905050505060019050919050565b600060025482108015610d5f57506001600083815260200190815260200160002060020160019054906101000a900460ff16151560011515145b8015610d9257506001600083815260200190815260200160002060020160009054906101000a900460ff16151560011515145b8015610dff57506001600083815260200190815260200160002060000160009054906101000a900473ffffffffffffffffffffffffffffffffffffffff1673ffffffffffffffffffffffffffffffffffffffff163373ffffffffffffffffffffffffffffffffffffffff16145b610e54576040517f08c379a000000000000000000000000000000000000000000000000000000000815260040180806020018281038252604c815260200180612547604c913960600191505060405180910390fd5b60006001600084815260200190815260200160002060020160016101000a81548160ff02191690831515021790555060019050919050565b60003360016000600254815260200190815260200160002060000160006101000a81548173ffffffffffffffffffffffffffffffffffffffff021916908373ffffffffffffffffffffffffffffffffffffffff160217905550836001600060025481526020019081526020016000206001019080519060200190610f119291906122d2565b50600060016000600254815260200190815260200160002060020160006101000a81548160ff0219169083151502179055506001806000600254815260200190815260200160002060020160016101000a81548160ff0219169083151502179055508263ffffffff1660016000600254815260200190815260200160002060030181905550600060016000600254815260200190815260200160002060040181905550816001600060025481526020019081526020016000206007019080519060200190610fe09291906122d2565b50600360003373ffffffffffffffffffffffffffffffffffffffff1673ffffffffffffffffffffffffffffffffffffffff168152602001908152602001600020600254908060018154018082558091505090600182039060005260206000200160009091929091909150555060043390806001815401808255809150509060018203906000526020600020016000909192909190916101000a81548173ffffffffffffffffffffffffffffffffffffffff021916908373ffffffffffffffffffffffffffffffffffffffff16021790555050600160025401600281905550600190509392505050565b60006002548310611125576040517f08c379a00000000000000000000000000000000000000000000000000000000081526004018080602001828103825260248152602001806123b46024913960400191505060405180910390fd5b6001600084815260200190815260200160002060050160008373ffffffffffffffffffffffffffffffffffffffff1673ffffffffffffffffffffffffffffffffffffffff16815260200190815260200160002054905092915050565b600060025482106111fa576040517f08c379a000000000000000000000000000000000000000000000000000000000815260040180806020018281038252601e8152602001807f67657442616c616e636528293a20496e76616c69642050726f6a65637421000081525060200191505060405180910390fd5b60016000838152602001908152602001600020600401549050919050565b60606000600360008473ffffffffffffffffffffffffffffffffffffffff1673ffffffffffffffffffffffffffffffffffffffff16815260200190815260200160002080549050116112b5576040517f08c379a000000000000000000000000000000000000000000000000000000000815260040180806020018281038252603c815260200180612378603c913960400191505060405180910390fd5b600360008373ffffffffffffffffffffffffffffffffffffffff1673ffffffffffffffffffffffffffffffffffffffff16815260200190815260200160002080548060200260200160405190810160405280929190818152602001828054801561133e57602002820191906000526020600020905b81548152602001906001019080831161132a575b50505050509050919050565b606060025482106113c3576040517f08c379a000000000000000000000000000000000000000000000000000000000815260040180806020018281038252601e8152602001807f67657446756e6465727328293a20496e76616c69642050726f6a65637421000081525060200191505060405180910390fd5b6001600083815260200190815260200160002060060180548060200260200160405190810160405280929190818152602001828054801561145957602002820191906000526020600020905b8160009054906101000a900473ffffffffffffffffffffffffffffffffffffffff1673ffffffffffffffffffffffffffffffffffffffff168152602001906001019080831161140f575b50505050509050919050565b60006002548310801561149f57506001600084815260200190815260200160002060020160019054906101000a900460ff16151560011515145b80156114d257506001600084815260200190815260200160002060020160009054906101000a900460ff16151560011515145b801561153157506001600084815260200190815260200160002060050160003373ffffffffffffffffffffffffffffffffffffffff1673ffffffffffffffffffffffffffffffffffffffff168152602001908152602001600020548211155b611586576040517f08c379a000000000000000000000000000000000000000000000000000000000815260040180806020018281038252604f815260200180612413604f913960600191505060405180910390fd5b6000809054906101000a900473ffffffffffffffffffffffffffffffffffffffff1673ffffffffffffffffffffffffffffffffffffffff1663095ea7b333846040518363ffffffff1660e01b8152600401808373ffffffffffffffffffffffffffffffffffffffff1673ffffffffffffffffffffffffffffffffffffffff16815260200182815260200192505050602060405180830381600087803b15801561162e57600080fd5b505af1158015611642573d6000803e3d6000fd5b505050506040513d602081101561165857600080fd5b810190808051906020019092919050505050816001600085815260200190815260200160002060040160008282540392505081905550816001600085815260200190815260200160002060050160003373ffffffffffffffffffffffffffffffffffffffff1673ffffffffffffffffffffffffffffffffffffffff168152602001908152602001600020600082825403925050819055506001905092915050565b60006002548210611772576040517f08c379a000000000000000000000000000000000000000000000000000000000815260040180806020018281038252601a8152602001807f69734f70656e28293a20496e76616c69642050726f6a6563742100000000000081525060200191505060405180910390fd5b6001600083815260200190815260200160002060020160019054906101000a900460ff169050919050565b60606002548210611816576040517f08c379a000000000000000000000000000000000000000000000000000000000815260040180806020018281038252601b8152602001807f6765744e616d6528293a20496e76616c69642050726f6a65637421000000000081525060200191505060405180910390fd5b600160008381526020019081526020016000206001018054600181600116156101000203166002900480601f0160208091040260200160405190810160405280929190818152602001828054600181600116156101000203166002900480156118c05780601f10611895576101008083540402835291602001916118c0565b820191906000526020600020905b8154815290600101906020018083116118a357829003601f168201915b50505050509050919050565b60006002548210611945576040517f08c379a000000000000000000000000000000000000000000000000000000000815260040180806020018281038252601e8152602001807f6973417070726f76656428293a20496e76616c69642050726f6a65637421000081525060200191505060405180910390fd5b6001600083815260200190815260200160002060020160009054906101000a900460ff169050919050565b6000809054906101000a900473ffffffffffffffffffffffffffffffffffffffff1681565b6000600254821080156119cf57506001600083815260200190815260200160002060020160019054906101000a900460ff16151560011515145b8015611a0257506001600083815260200190815260200160002060020160009054906101000a900460ff16151560001515145b611a57576040517f08c379a000000000000000000000000000000000000000000000000000000000815260040180806020018281038252603b8152602001806123d8603b913960400191505060405180910390fd5b600180600084815260200190815260200160002060020160006101000a81548160ff02191690831515021790555060019050919050565b60006002548210611b07576040517f08c379a000000000000000000000000000000000000000000000000000000000815260040180806020018281038252601c8152602001807f6765744f776e657228293a20496e76616c69642050726f6a656374210000000081525060200191505060405180910390fd5b6001600083815260200190815260200160002060000160009054906101000a900473ffffffffffffffffffffffffffffffffffffffff169050919050565b60606000600560008473ffffffffffffffffffffffffffffffffffffffff1673ffffffffffffffffffffffffffffffffffffffff1681526020019081526020016000208054905011611be2576040517f08c379a00000000000000000000000000000000000000000000000000000000081526004018080602001828103825260418152602001806124626041913960600191505060405180910390fd5b600560008373ffffffffffffffffffffffffffffffffffffffff1673ffffffffffffffffffffffffffffffffffffffff168152602001908152602001600020805480602002602001604051908101604052809291908181526020018280548015611c6b57602002820191906000526020600020905b815481526020019060010190808311611c57575b50505050509050919050565b60606002548210611cf0576040517f08c379a000000000000000000000000000000000000000000000000000000000815260040180806020018281038252601f8152602001807f676574497066734861736828293a20496e76616c69642050726f6a656374210081525060200191505060405180910390fd5b600160008381526020019081526020016000206007018054600181600116156101000203166002900480601f016020809104026020016040519081016040528092919081815260200182805460018160011615610100020316600290048015611d9a5780601f10611d6f57610100808354040283529160200191611d9a565b820191906000526020600020905b815481529060010190602001808311611d7d57829003601f168201915b50505050509050919050565b60006002548210611e1f576040517f08c379a000000000000000000000000000000000000000000000000000000000815260040180806020018281038252601b8152602001807f676574476f616c28293a20496e76616c69642050726f6a65637421000000000081525060200191505060405180910390fd5b60016000838152602001908152602001600020600301549050919050565b600060025483108015611e7757506001600084815260200190815260200160002060020160019054906101000a900460ff16151560011515145b8015611eaa57506001600084815260200190815260200160002060020160009054906101000a900460ff16151560011515145b8015611eb65750600082115b611f0b576040517f08c379a000000000000000000000000000000000000000000000000000000000815260040180806020018281038252604e8152602001806124f9604e913960600191505060405180910390fd5b6000809054906101000a900473ffffffffffffffffffffffffffffffffffffffff1673ffffffffffffffffffffffffffffffffffffffff166323b872dd3330856040518463ffffffff1660e01b8152600401808473ffffffffffffffffffffffffffffffffffffffff1673ffffffffffffffffffffffffffffffffffffffff1681526020018373ffffffffffffffffffffffffffffffffffffffff1673ffffffffffffffffffffffffffffffffffffffff1681526020018281526020019350505050602060405180830381600087803b158015611fe757600080fd5b505af1158015611ffb573d6000803e3d6000fd5b505050506040513d602081101561201157600080fd5b810190808051906020019092919050505050816001600085815260200190815260200160002060040160008282540192505081905550816001600085815260200190815260200160002060050160003373ffffffffffffffffffffffffffffffffffffffff1673ffffffffffffffffffffffffffffffffffffffff16815260200190815260200160002060008282540192505081905550600080905060008090505b6001600086815260200190815260200160002060060180549050811015612165576001600086815260200190815260200160002060060181815481106120f557fe5b9060005260206000200160009054906101000a900473ffffffffffffffffffffffffffffffffffffffff1673ffffffffffffffffffffffffffffffffffffffff163373ffffffffffffffffffffffffffffffffffffffff16141561215857600191505b80806001019150506120b3565b508015156000151514156122bd57600160008581526020019081526020016000206006013390806001815401808255809150509060018203906000526020600020016000909192909190916101000a81548173ffffffffffffffffffffffffffffffffffffffff021916908373ffffffffffffffffffffffffffffffffffffffff16021790555050600560003373ffffffffffffffffffffffffffffffffffffffff1673ffffffffffffffffffffffffffffffffffffffff16815260200190815260200160002084908060018154018082558091505090600182039060005260206000200160009091929091909150555060063390806001815401808255809150509060018203906000526020600020016000909192909190916101000a81548173ffffffffffffffffffffffffffffffffffffffff021916908373ffffffffffffffffffffffffffffffffffffffff160217905550505b600191505092915050565b6000600254905090565b828054600181600116156101000203166002900490600052602060002090601f016020900481019282601f1061231357805160ff1916838001178555612341565b82800160010185558215612341579182015b82811115612340578251825591602001919060010190612325565b5b50905061234e9190612352565b5090565b61237491905b80821115612370576000816000905550600101612358565b5090565b9056fe6765744f776e657250726f6a6563747328293a20496e76616c69642041646472657373202f204e6f2050726f6a6563747320417661696c61626c652167657446756e64657242616c616e636528293a20496e76616c69642050726f6a65637421617070726f766528293a20496e76616c69642050726f6a6563742f50726f6a65637420436c6f7365642f50726f6a65637420417070726f76656421776974686472617728293a20496e76616c69642050726f6a6563742f50726f6a65637420436c6f7365642f50726f6a656374204e4f5420417070726f7665642f496e76616c696420416d6f756e74216765745573657246756e64656450726f6a6563747328293a20496e76616c69642041646472657373202f204e6f2050726f6a6563747320417661696c61626c65216469737472696275746546756e64696e6728293a20496e76616c69642050726f6a6563742f50726f6a656374204f70656e2f50726f6a656374204e4f5420417070726f7665642f556e6b6e6f776e2053656e646572216465706f73697428293a20496e76616c69642050726f6a6563742f50726f6a65637420436c6f7365642f50726f6a656374204e4f5420417070726f7665642f496e76616c696420416d6f756e7421636c6f736528293a20496e76616c69642050726f6a6563742f50726f6a65637420436c6f7365642f50726f6a656374204e4f5420417070726f7665642f556e6b6e6f776e2053656e64657221a265627a7a7231582082fd76a41e76a0b33282bbfdeabd03aff5ecdb3fe4c598e336ce67c056a93d1164736f6c63430005100032",
  "source": "pragma solidity ^0.5.5;\r\n\r\nimport \"@openzeppelin/contracts/token/ERC20/IERC20.sol\";\r\n\r\ncontract CrowdFunding {\r\n  IERC20 public crowdFundingToken_;\r\n\r\n  struct CrowdFundingProject {\r\n    address owner;\r\n    string name;\r\n    bool approved;\r\n    bool open;\r\n    uint256 goal;\r\n    uint256 balance;\r\n    mapping (address => uint256) fundersBalances;\r\n    address [] funders;\r\n    string ipfsHash;\r\n  }\r\n\r\n  mapping (uint256 => CrowdFundingProject) private projects_;\r\n  uint256 private lastProjectId_;\r\n\r\n  mapping (address => uint256 []) private ownerProjects_;\r\n  address [] private owners_;\r\n\r\n  mapping (address => uint256 []) private userFundedProjects_;\r\n  address [] private funders_;\r\n\r\n  constructor(IERC20 _crowdFundingToken) public {\r\n    crowdFundingToken_ = _crowdFundingToken;\r\n    lastProjectId_ = 0;\r\n  }\r\n\r\n  function setIpfsHash(uint256 _projectId, string memory _ipfsHash) public returns (bool) {\r\n    require (_projectId < lastProjectId_, \"setIpfsHash(): Invalid Project!\");\r\n    projects_[_projectId].ipfsHash = _ipfsHash;\r\n\r\n    return true;\r\n  }\r\n\r\n  function getOwner(uint256 _projectId) public view returns (address) {\r\n    require (_projectId < lastProjectId_, \"getOwner(): Invalid Project!\");\r\n    return projects_[_projectId].owner;\r\n  }\r\n\r\n  function getName(uint256 _projectId) public view returns (string memory) {\r\n    require (_projectId < lastProjectId_, \"getName(): Invalid Project!\");\r\n    return projects_[_projectId].name;\r\n  }\r\n\r\n  function isApproved(uint256 _projectId) public view returns (bool) {\r\n    require (_projectId < lastProjectId_, \"isApproved(): Invalid Project!\");\r\n    return projects_[_projectId].approved;\r\n  }\r\n\r\n  function isOpen(uint256 _projectId) public view returns (bool) {\r\n    require (_projectId < lastProjectId_, \"isOpen(): Invalid Project!\");\r\n    return projects_[_projectId].open;\r\n  }\r\n\r\n  function getGoal(uint256 _projectId) public view returns (uint256) {\r\n    require (_projectId < lastProjectId_, \"getGoal(): Invalid Project!\");\r\n    return projects_[_projectId].goal;\r\n  }\r\n\r\n  function getBalance(uint256 _projectId) public view returns (uint256) {\r\n    require (_projectId < lastProjectId_, \"getBalance(): Invalid Project!\");\r\n    return projects_[_projectId].balance;\r\n  }\r\n\r\n  function getFunderBalance(uint256 _projectId, address _funder) public view returns (uint256) {\r\n    require (_projectId < lastProjectId_, \"getFunderBalance(): Invalid Project!\");\r\n    return projects_[_projectId].fundersBalances[_funder];\r\n  }\r\n\r\n  function getFunders(uint256 _projectId) public view returns (address [] memory) {\r\n    require (_projectId < lastProjectId_, \"getFunders(): Invalid Project!\");\r\n    return projects_[_projectId].funders;\r\n  }\r\n\r\n  function getIpfsHash(uint256 _projectId) public view returns (string memory) {\r\n    require (_projectId < lastProjectId_, \"getIpfsHash(): Invalid Project!\");\r\n    return projects_[_projectId].ipfsHash;\r\n  }\r\n\r\n  function getLastProjectId() public view returns (uint256) {\r\n    return lastProjectId_;\r\n  }\r\n\r\n  function getOwnerProjects(address _owner) public view returns (uint256 [] memory) {\r\n    require (\r\n      ownerProjects_[_owner].length > 0,\r\n      \"getOwnerProjects(): Invalid Address / No Projects Available!\"\r\n    );\r\n\r\n    return ownerProjects_[_owner];\r\n  }\r\n\r\n  function getUserFundedProjects(address _user) public view returns (uint256 [] memory) {\r\n    require (\r\n      userFundedProjects_[_user].length > 0,\r\n      \"getUserFundedProjects(): Invalid Address / No Projects Available!\"\r\n    );\r\n\r\n    return userFundedProjects_[_user];\r\n  }\r\n\r\n  function create(string memory _name, uint32 _goal, string memory _ipfsHash) public returns (bool) {\r\n    projects_[lastProjectId_].owner = msg.sender;\r\n    projects_[lastProjectId_].name = _name;\r\n    projects_[lastProjectId_].approved = false;\r\n    projects_[lastProjectId_].open = true;\r\n    projects_[lastProjectId_].goal = _goal;\r\n    projects_[lastProjectId_].balance = 0;\r\n    projects_[lastProjectId_].ipfsHash = _ipfsHash;\r\n\r\n    ownerProjects_[msg.sender].push(lastProjectId_);\r\n    owners_.push(msg.sender);\r\n\r\n    lastProjectId_ = lastProjectId_ + 1;\r\n\r\n    return true;\r\n  }\r\n\r\n  function approve(uint256 _projectId) public returns (bool) {\r\n    require (\r\n      _projectId < lastProjectId_ &&\r\n      true == projects_[_projectId].open &&\r\n      false == projects_[_projectId].approved,\r\n      \"approve(): Invalid Project/Project Closed/Project Approved!\"\r\n    );\r\n\r\n    projects_[_projectId].approved = true;\r\n\r\n    return true;\r\n  }\r\n\r\n  function deposit(uint256 _projectId, uint256 _amount) public returns (bool) {\r\n    require (\r\n      _projectId < lastProjectId_ &&\r\n      true == projects_[_projectId].open &&\r\n      true == projects_[_projectId].approved &&\r\n      _amount > 0,\r\n      \"deposit(): Invalid Project/Project Closed/Project NOT Approved/Invalid Amount!\"\r\n    );\r\n\r\n    crowdFundingToken_.transferFrom(msg.sender, address(this), _amount);\r\n\r\n    projects_[_projectId].balance += _amount;\r\n    projects_[_projectId].fundersBalances[msg.sender] += _amount;\r\n\r\n    bool funderFound = false;\r\n\r\n    for (uint it = 0; it < projects_[_projectId].funders.length; it++) {\r\n      if (msg.sender == projects_[_projectId].funders[it]) {\r\n        funderFound = true;\r\n      }\r\n    }\r\n\r\n    if (false == funderFound) {\r\n      projects_[_projectId].funders.push(msg.sender);\r\n\r\n      userFundedProjects_[msg.sender].push(_projectId);\r\n      funders_.push(msg.sender);\r\n    }\r\n\r\n    return true;\r\n  }\r\n\r\n  function withdraw(uint256 _projectId, uint256 _amount) public returns (bool) {\r\n    require (\r\n      _projectId < lastProjectId_ &&\r\n      true == projects_[_projectId].open &&\r\n      true == projects_[_projectId].approved &&\r\n      _amount <= projects_[_projectId].fundersBalances[msg.sender],\r\n      \"withdraw(): Invalid Project/Project Closed/Project NOT Approved/Invalid Amount!\"\r\n    );\r\n\r\n    crowdFundingToken_.approve(msg.sender, _amount);\r\n\r\n    projects_[_projectId].balance -= _amount;\r\n    projects_[_projectId].fundersBalances[msg.sender] -= _amount;\r\n\r\n    return true;\r\n  }\r\n\r\n  function close(uint256 _projectId) public returns (bool) {\r\n    require (\r\n      _projectId < lastProjectId_ &&\r\n      true == projects_[_projectId].open &&\r\n      true == projects_[_projectId].approved &&\r\n      msg.sender == projects_[_projectId].owner,\r\n      \"close(): Invalid Project/Project Closed/Project NOT Approved/Unknown Sender!\"\r\n    );\r\n\r\n    projects_[_projectId].open = false;\r\n\r\n    return true;\r\n  }\r\n\r\n  function distributeFunding(uint256 _projectId) public returns (bool) {\r\n    require (\r\n      _projectId < lastProjectId_ &&\r\n      false == projects_[_projectId].open &&\r\n      true == projects_[_projectId].approved &&\r\n      msg.sender == projects_[_projectId].owner,\r\n      \"distributeFunding(): Invalid Project/Project Open/Project NOT Approved/Unknown Sender!\"\r\n    );\r\n\r\n    crowdFundingToken_.approve(msg.sender, projects_[_projectId].balance);\r\n\r\n    return true;\r\n  }\r\n}\r\n",
  "sourcePath": "D:/Computer Science/Projects/CrowdFundingDApp/contracts/CrowdFunding.sol",
  "compiler": {
    "name": "solc",
    "version": "0.5.16+commit.9c3226ce.Emscripten.clang"
  },
  "schemaVersion": "3.4.0",
  "updatedAt": "2022-06-29T10:54:48.425Z",
  "networkType": "ethereum",
  "devdoc": {
    "methods": {}
  },
  "userdoc": {
    "methods": {}
  }
}