{
  "contractName": "CrowdFunding",
  "abi": [
    {
      "inputs": [
        {
          "internalType": "contract IERC20",
          "name": "_crowdFundingToken",
          "type": "address"
        }
      ],
      "payable": false,
      "stateMutability": "nonpayable",
      "type": "constructor"
    },
    {
      "constant": true,
      "inputs": [],
      "name": "crowdFundingToken_",
      "outputs": [
        {
          "internalType": "contract IERC20",
          "name": "",
          "type": "address"
        }
      ],
      "payable": false,
      "stateMutability": "view",
      "type": "function"
    },
    {
      "constant": true,
      "inputs": [
        {
          "internalType": "uint256",
          "name": "_projectId",
          "type": "uint256"
        }
      ],
      "name": "getName",
      "outputs": [
        {
          "internalType": "string",
          "name": "",
          "type": "string"
        }
      ],
      "payable": false,
      "stateMutability": "view",
      "type": "function"
    },
    {
      "constant": true,
      "inputs": [
        {
          "internalType": "uint256",
          "name": "_projectId",
          "type": "uint256"
        }
      ],
      "name": "isOpen",
      "outputs": [
        {
          "internalType": "bool",
          "name": "",
          "type": "bool"
        }
      ],
      "payable": false,
      "stateMutability": "view",
      "type": "function"
    },
    {
      "constant": true,
      "inputs": [
        {
          "internalType": "uint256",
          "name": "_projectId",
          "type": "uint256"
        }
      ],
      "name": "getGoal",
      "outputs": [
        {
          "internalType": "uint32",
          "name": "",
          "type": "uint32"
        }
      ],
      "payable": false,
      "stateMutability": "view",
      "type": "function"
    },
    {
      "constant": true,
      "inputs": [
        {
          "internalType": "uint256",
          "name": "_projectId",
          "type": "uint256"
        }
      ],
      "name": "getBalance",
      "outputs": [
        {
          "internalType": "uint32",
          "name": "",
          "type": "uint32"
        }
      ],
      "payable": false,
      "stateMutability": "view",
      "type": "function"
    },
    {
      "constant": true,
      "inputs": [],
      "name": "getLastProjectId",
      "outputs": [
        {
          "internalType": "uint256",
          "name": "",
          "type": "uint256"
        }
      ],
      "payable": false,
      "stateMutability": "view",
      "type": "function"
    },
    {
      "constant": false,
      "inputs": [
        {
          "internalType": "string",
          "name": "_name",
          "type": "string"
        },
        {
          "internalType": "uint32",
          "name": "_goal",
          "type": "uint32"
        }
      ],
      "name": "create",
      "outputs": [
        {
          "internalType": "bool",
          "name": "",
          "type": "bool"
        }
      ],
      "payable": false,
      "stateMutability": "nonpayable",
      "type": "function"
    },
    {
      "constant": false,
      "inputs": [
        {
          "internalType": "uint256",
          "name": "_projectId",
          "type": "uint256"
        },
        {
          "internalType": "uint32",
          "name": "_amount",
          "type": "uint32"
        }
      ],
      "name": "deposit",
      "outputs": [
        {
          "internalType": "bool",
          "name": "",
          "type": "bool"
        }
      ],
      "payable": false,
      "stateMutability": "nonpayable",
      "type": "function"
    },
    {
      "constant": false,
      "inputs": [
        {
          "internalType": "uint256",
          "name": "_projectId",
          "type": "uint256"
        },
        {
          "internalType": "uint32",
          "name": "_amount",
          "type": "uint32"
        }
      ],
      "name": "withdraw",
      "outputs": [
        {
          "internalType": "bool",
          "name": "",
          "type": "bool"
        }
      ],
      "payable": false,
      "stateMutability": "nonpayable",
      "type": "function"
    },
    {
      "constant": false,
      "inputs": [
        {
          "internalType": "uint256",
          "name": "_projectId",
          "type": "uint256"
        }
      ],
      "name": "close",
      "outputs": [
        {
          "internalType": "bool",
          "name": "",
          "type": "bool"
        }
      ],
      "payable": false,
      "stateMutability": "nonpayable",
      "type": "function"
    },
    {
      "constant": false,
      "inputs": [
        {
          "internalType": "uint256",
          "name": "_projectId",
          "type": "uint256"
        }
      ],
      "name": "distributeFunding",
      "outputs": [
        {
          "internalType": "bool",
          "name": "",
          "type": "bool"
        }
      ],
      "payable": false,
      "stateMutability": "nonpayable",
      "type": "function"
    }
  ],
  "bytecode": "0x608060405234801561001057600080fd5b5060405161153c38038061153c8339818101604052602081101561003357600080fd5b8101908080519060200190929190505050806000806101000a81548173ffffffffffffffffffffffffffffffffffffffff021916908373ffffffffffffffffffffffffffffffffffffffff1602179055506000600281905550506114a08061009c6000396000f3fe608060405234801561001057600080fd5b50600436106100a95760003560e01c80636145d1b7116100715780636145d1b7146102245780636b8ff5741461027a5780639c43b6e214610321578063a11b2c5514610404578063df6ed6cb1461044e578063f801f6a21461049c576100a9565b8063066d2e5c146100ae5780630aebeb4e146100f45780631e0104391461013a5780632b2dfd2c146101885780634d6861a6146101de575b600080fd5b6100da600480360360208110156100c457600080fd5b81019080803590602001909291905050506104ba565b604051808215151515815260200191505060405180910390f35b6101206004803603602081101561010a57600080fd5b8101908080359060200190929190505050610703565b604051808215151515815260200191505060405180910390f35b6101666004803603602081101561015057600080fd5b8101908080359060200190929190505050610837565b604051808263ffffffff1663ffffffff16815260200191505060405180910390f35b6101c46004803603604081101561019e57600080fd5b8101908080359060200190929190803563ffffffff1690602001909291905050506108de565b604051808215151515815260200191505060405180910390f35b61020a600480360360208110156101f457600080fd5b8101908080359060200190929190505050610bf2565b604051808215151515815260200191505060405180910390f35b6102606004803603604081101561023a57600080fd5b8101908080359060200190929190803563ffffffff169060200190929190505050610c96565b604051808215151515815260200191505060405180910390f35b6102a66004803603602081101561029057600080fd5b8101908080359060200190929190505050610f99565b6040518080602001828103825283818151815260200191508051906020019080838360005b838110156102e65780820151818401526020810190506102cb565b50505050905090810190601f1680156103135780820380516001836020036101000a031916815260200191505b509250505060405180910390f35b6103ea6004803603604081101561033757600080fd5b810190808035906020019064010000000081111561035457600080fd5b82018360208201111561036657600080fd5b8035906020019184600183028401116401000000008311171561038857600080fd5b91908080601f016020809104026020016040519081016040528093929190818152602001838380828437600081840152601f19601f820116905080830192505050505050509192919290803563ffffffff1690602001909291905050506110c8565b604051808215151515815260200191505060405180910390f35b61040c611203565b604051808273ffffffffffffffffffffffffffffffffffffffff1673ffffffffffffffffffffffffffffffffffffffff16815260200191505060405180910390f35b61047a6004803603602081101561046457600080fd5b8101908080359060200190929190505050611228565b604051808263ffffffff1663ffffffff16815260200191505060405180910390f35b6104a46112cf565b6040518082815260200191505060405180910390f35b6000600254821080156104f457506001600083815260200190815260200160002060020160009054906101000a900460ff16151560001515145b801561056157506001600083815260200190815260200160002060000160009054906101000a900473ffffffffffffffffffffffffffffffffffffffff1673ffffffffffffffffffffffffffffffffffffffff163373ffffffffffffffffffffffffffffffffffffffff16145b6105b6576040517f08c379a00000000000000000000000000000000000000000000000000000000081526004018080602001828103825260438152602001806113f06043913960600191505060405180910390fd5b6000809054906101000a900473ffffffffffffffffffffffffffffffffffffffff1673ffffffffffffffffffffffffffffffffffffffff166323b872dd30336001600087815260200190815260200160002060020160059054906101000a900463ffffffff166040518463ffffffff1660e01b8152600401808473ffffffffffffffffffffffffffffffffffffffff1673ffffffffffffffffffffffffffffffffffffffff1681526020018373ffffffffffffffffffffffffffffffffffffffff1673ffffffffffffffffffffffffffffffffffffffff1681526020018263ffffffff1681526020019350505050602060405180830381600087803b1580156106be57600080fd5b505af11580156106d2573d6000803e3d6000fd5b505050506040513d60208110156106e857600080fd5b81019080805190602001909291905050505060019050919050565b60006002548210801561073d57506001600083815260200190815260200160002060020160009054906101000a900460ff16151560011515145b80156107aa57506001600083815260200190815260200160002060000160009054906101000a900473ffffffffffffffffffffffffffffffffffffffff1673ffffffffffffffffffffffffffffffffffffffff163373ffffffffffffffffffffffffffffffffffffffff16145b6107ff576040517f08c379a00000000000000000000000000000000000000000000000000000000081526004018080602001828103825260378152602001806113b96037913960400191505060405180910390fd5b60006001600084815260200190815260200160002060020160006101000a81548160ff02191690831515021790555060019050919050565b600060025482106108b0576040517f08c379a000000000000000000000000000000000000000000000000000000000815260040180806020018281038252601e8152602001807f67657442616c616e636528293a20496e76616c69642050726f6a65637421000081525060200191505060405180910390fd5b6001600083815260200190815260200160002060020160059054906101000a900463ffffffff169050919050565b60006002548310801561091857506001600084815260200190815260200160002060020160009054906101000a900460ff16151560011515145b801561092a575060008263ffffffff16115b61097f576040517f08c379a00000000000000000000000000000000000000000000000000000000081526004018080602001828103825260398152602001806114336039913960400191505060405180910390fd5b6000809054906101000a900473ffffffffffffffffffffffffffffffffffffffff1673ffffffffffffffffffffffffffffffffffffffff166323b872dd3330856040518463ffffffff1660e01b8152600401808473ffffffffffffffffffffffffffffffffffffffff1673ffffffffffffffffffffffffffffffffffffffff1681526020018373ffffffffffffffffffffffffffffffffffffffff1673ffffffffffffffffffffffffffffffffffffffff1681526020018263ffffffff1681526020019350505050602060405180830381600087803b158015610a6157600080fd5b505af1158015610a75573d6000803e3d6000fd5b505050506040513d6020811015610a8b57600080fd5b810190808051906020019092919050505050816001600085815260200190815260200160002060020160058282829054906101000a900463ffffffff160192506101000a81548163ffffffff021916908363ffffffff160217905550816001600085815260200190815260200160002060030160003373ffffffffffffffffffffffffffffffffffffffff1673ffffffffffffffffffffffffffffffffffffffff16815260200190815260200160002060008282829054906101000a900463ffffffff160192506101000a81548163ffffffff021916908363ffffffff160217905550600160008481526020019081526020016000206004013390806001815401808255809150509060018203906000526020600020016000909192909190916101000a81548173ffffffffffffffffffffffffffffffffffffffff021916908373ffffffffffffffffffffffffffffffffffffffff160217905550506001905092915050565b60006002548210610c6b576040517f08c379a000000000000000000000000000000000000000000000000000000000815260040180806020018281038252601a8152602001807f69734f70656e28293a20496e76616c69642050726f6a6563742100000000000081525060200191505060405180910390fd5b6001600083815260200190815260200160002060020160009054906101000a900460ff169050919050565b600060025483108015610cd057506001600084815260200190815260200160002060020160009054906101000a900460ff16151560011515145b8015610d4b57506001600084815260200190815260200160002060030160003373ffffffffffffffffffffffffffffffffffffffff1673ffffffffffffffffffffffffffffffffffffffff16815260200190815260200160002060009054906101000a900463ffffffff1663ffffffff168263ffffffff1611155b610da0576040517f08c379a000000000000000000000000000000000000000000000000000000000815260040180806020018281038252603a81526020018061137f603a913960400191505060405180910390fd5b6000809054906101000a900473ffffffffffffffffffffffffffffffffffffffff1673ffffffffffffffffffffffffffffffffffffffff166323b872dd3033856040518463ffffffff1660e01b8152600401808473ffffffffffffffffffffffffffffffffffffffff1673ffffffffffffffffffffffffffffffffffffffff1681526020018373ffffffffffffffffffffffffffffffffffffffff1673ffffffffffffffffffffffffffffffffffffffff1681526020018263ffffffff1681526020019350505050602060405180830381600087803b158015610e8257600080fd5b505af1158015610e96573d6000803e3d6000fd5b505050506040513d6020811015610eac57600080fd5b810190808051906020019092919050505050816001600085815260200190815260200160002060020160058282829054906101000a900463ffffffff160392506101000a81548163ffffffff021916908363ffffffff160217905550816001600085815260200190815260200160002060030160003373ffffffffffffffffffffffffffffffffffffffff1673ffffffffffffffffffffffffffffffffffffffff16815260200190815260200160002060008282829054906101000a900463ffffffff160392506101000a81548163ffffffff021916908363ffffffff1602179055506001905092915050565b60606002548210611012576040517f08c379a000000000000000000000000000000000000000000000000000000000815260040180806020018281038252601b8152602001807f6765744e616d6528293a20496e76616c69642050726f6a65637421000000000081525060200191505060405180910390fd5b600160008381526020019081526020016000206001018054600181600116156101000203166002900480601f0160208091040260200160405190810160405280929190818152602001828054600181600116156101000203166002900480156110bc5780601f10611091576101008083540402835291602001916110bc565b820191906000526020600020905b81548152906001019060200180831161109f57829003601f168201915b50505050509050919050565b60003360016000600254815260200190815260200160002060000160006101000a81548173ffffffffffffffffffffffffffffffffffffffff021916908373ffffffffffffffffffffffffffffffffffffffff16021790555082600160006002548152602001908152602001600020600101908051906020019061114d9291906112d9565b506001806000600254815260200190815260200160002060020160006101000a81548160ff0219169083151502179055508160016000600254815260200190815260200160002060020160016101000a81548163ffffffff021916908363ffffffff160217905550600060016000600254815260200190815260200160002060020160056101000a81548163ffffffff021916908363ffffffff1602179055506001600254016002819055506001905092915050565b6000809054906101000a900473ffffffffffffffffffffffffffffffffffffffff1681565b600060025482106112a1576040517f08c379a000000000000000000000000000000000000000000000000000000000815260040180806020018281038252601b8152602001807f676574476f616c28293a20496e76616c69642050726f6a65637421000000000081525060200191505060405180910390fd5b6001600083815260200190815260200160002060020160019054906101000a900463ffffffff169050919050565b6000600254905090565b828054600181600116156101000203166002900490600052602060002090601f016020900481019282601f1061131a57805160ff1916838001178555611348565b82800160010185558215611348579182015b8281111561134757825182559160200191906001019061132c565b5b5090506113559190611359565b5090565b61137b91905b8082111561137757600081600090555060010161135f565b5090565b9056fe776974686472617728293a20496e76616c69642050726f6a6563742f50726f6a65637420436c6f7365642f496e76616c696420416d6f756e7421636c6f736528293a20496e76616c69642050726f6a6563742f50726f6a65637420436c6f7365642f556e6b6e6f776e2053656e646572216469737472696275746546756e64696e6728293a20496e76616c69642050726f6a6563742f50726f6a65637420436c6f7365642f556e6b6e6f776e2053656e646572216465706f73697428293a20496e76616c69642050726f6a6563742f50726f6a65637420436c6f7365642f496e76616c696420416d6f756e7421a265627a7a72315820b952c991aaf36af2ce99152545f990013b62671ff3563ba2f93b56f8d8e39b9a64736f6c63430005100032",
  "source": "pragma solidity ^0.5.5;\r\n\r\nimport \"@openzeppelin/contracts/token/ERC20/IERC20.sol\";\r\n\r\ncontract CrowdFunding {\r\n  IERC20 public crowdFundingToken_;\r\n\r\n  struct CrowdFundingProject {\r\n    address owner;\r\n    string name;\r\n    bool open;\r\n    uint32 goal;\r\n    uint32 balance;\r\n    mapping (address => uint32) fundersBalances;\r\n    address [] funders;\r\n  }\r\n\r\n  mapping (uint256 => CrowdFundingProject) private projects_;\r\n  uint256 private lastProjectId_;\r\n\r\n  constructor(IERC20 _crowdFundingToken) public {\r\n    crowdFundingToken_ = _crowdFundingToken;\r\n    lastProjectId_ = 0;\r\n  }\r\n\r\n  function getName(uint256 _projectId) public view returns (string memory) {\r\n    require (_projectId < lastProjectId_, \"getName(): Invalid Project!\");\r\n    return projects_[_projectId].name;\r\n  }\r\n\r\n  function isOpen(uint256 _projectId) public view returns (bool) {\r\n    require (_projectId < lastProjectId_, \"isOpen(): Invalid Project!\");\r\n    return projects_[_projectId].open;\r\n  }\r\n\r\n  function getGoal(uint256 _projectId) public view returns (uint32) {\r\n    require (_projectId < lastProjectId_, \"getGoal(): Invalid Project!\");\r\n    return projects_[_projectId].goal;\r\n  }\r\n\r\n  function getBalance(uint256 _projectId) public view returns (uint32) {\r\n    require (_projectId < lastProjectId_, \"getBalance(): Invalid Project!\");\r\n    return projects_[_projectId].balance;\r\n  }\r\n\r\n  function getLastProjectId() public view returns (uint256) {\r\n    return lastProjectId_;\r\n  }\r\n\r\n  function create(string memory _name, uint32 _goal) public returns (bool) {\r\n    projects_[lastProjectId_].owner = msg.sender;\r\n    projects_[lastProjectId_].name = _name;\r\n    projects_[lastProjectId_].open = true;\r\n    projects_[lastProjectId_].goal = _goal;\r\n    projects_[lastProjectId_].balance = 0;\r\n\r\n    lastProjectId_ = lastProjectId_ + 1;\r\n\r\n    return true;\r\n  }\r\n\r\n  function deposit(uint256 _projectId, uint32 _amount) public returns (bool) {\r\n    require (\r\n      _projectId < lastProjectId_ &&\r\n      true == projects_[_projectId].open &&\r\n      _amount > 0,\r\n      \"deposit(): Invalid Project/Project Closed/Invalid Amount!\"\r\n    );\r\n\r\n    crowdFundingToken_.transferFrom(msg.sender, address(this), _amount);\r\n\r\n    projects_[_projectId].balance += _amount;\r\n    projects_[_projectId].fundersBalances[msg.sender] += _amount;\r\n    projects_[_projectId].funders.push(msg.sender);\r\n\r\n    return true;\r\n  }\r\n\r\n  function withdraw(uint256 _projectId, uint32 _amount) public returns (bool) {\r\n    require (\r\n      _projectId < lastProjectId_ &&\r\n      true == projects_[_projectId].open &&\r\n      _amount <= projects_[_projectId].fundersBalances[msg.sender],\r\n      \"withdraw(): Invalid Project/Project Closed/Invalid Amount!\"\r\n    );\r\n\r\n    crowdFundingToken_.transferFrom(address(this), msg.sender, _amount);\r\n\r\n    projects_[_projectId].balance -= _amount;\r\n    projects_[_projectId].fundersBalances[msg.sender] -= _amount;\r\n\r\n    return true;\r\n  }\r\n\r\n  function close(uint256 _projectId) public returns (bool) {\r\n    require (\r\n      _projectId < lastProjectId_ &&\r\n      true == projects_[_projectId].open &&\r\n      msg.sender == projects_[_projectId].owner,\r\n      \"close(): Invalid Project/Project Closed/Unknown Sender!\"\r\n    );\r\n\r\n    projects_[_projectId].open = false;\r\n\r\n    return true;\r\n  }\r\n\r\n  function distributeFunding(uint256 _projectId) public returns (bool) {\r\n    require (\r\n      _projectId < lastProjectId_ &&\r\n      false == projects_[_projectId].open &&\r\n      msg.sender == projects_[_projectId].owner,\r\n      \"distributeFunding(): Invalid Project/Project Closed/Unknown Sender!\"\r\n    );\r\n\r\n    crowdFundingToken_.transferFrom(address(this), msg.sender, projects_[_projectId].balance);\r\n\r\n    return true;\r\n  }\r\n}\r\n",
  "sourcePath": "D:/Computer Science/Projects/CrowdFundingDAppBackup/contracts/CrowdFunding.sol",
  "compiler": {
    "name": "solc",
    "version": "0.5.16+commit.9c3226ce.Emscripten.clang"
  },
  "schemaVersion": "3.4.0",
  "updatedAt": "2022-02-08T21:27:09.856Z",
  "networkType": "ethereum",
  "devdoc": {
    "methods": {}
  },
  "userdoc": {
    "methods": {}
  }
}