{
  "contractName": "CrowdFunding",
  "abi": [
    {
      "inputs": [
        {
          "internalType": "contract IERC20",
          "name": "_crowdFundingToken",
          "type": "address"
        }
      ],
      "payable": false,
      "stateMutability": "nonpayable",
      "type": "constructor"
    },
    {
      "constant": true,
      "inputs": [],
      "name": "crowdFundingToken_",
      "outputs": [
        {
          "internalType": "contract IERC20",
          "name": "",
          "type": "address"
        }
      ],
      "payable": false,
      "stateMutability": "view",
      "type": "function"
    },
    {
      "constant": true,
      "inputs": [
        {
          "internalType": "uint256",
          "name": "_projectId",
          "type": "uint256"
        }
      ],
      "name": "getOwner",
      "outputs": [
        {
          "internalType": "address",
          "name": "",
          "type": "address"
        }
      ],
      "payable": false,
      "stateMutability": "view",
      "type": "function"
    },
    {
      "constant": true,
      "inputs": [
        {
          "internalType": "uint256",
          "name": "_projectId",
          "type": "uint256"
        }
      ],
      "name": "getName",
      "outputs": [
        {
          "internalType": "string",
          "name": "",
          "type": "string"
        }
      ],
      "payable": false,
      "stateMutability": "view",
      "type": "function"
    },
    {
      "constant": true,
      "inputs": [
        {
          "internalType": "uint256",
          "name": "_projectId",
          "type": "uint256"
        }
      ],
      "name": "isApproved",
      "outputs": [
        {
          "internalType": "bool",
          "name": "",
          "type": "bool"
        }
      ],
      "payable": false,
      "stateMutability": "view",
      "type": "function"
    },
    {
      "constant": true,
      "inputs": [
        {
          "internalType": "uint256",
          "name": "_projectId",
          "type": "uint256"
        }
      ],
      "name": "isOpen",
      "outputs": [
        {
          "internalType": "bool",
          "name": "",
          "type": "bool"
        }
      ],
      "payable": false,
      "stateMutability": "view",
      "type": "function"
    },
    {
      "constant": true,
      "inputs": [
        {
          "internalType": "uint256",
          "name": "_projectId",
          "type": "uint256"
        }
      ],
      "name": "getGoal",
      "outputs": [
        {
          "internalType": "uint256",
          "name": "",
          "type": "uint256"
        }
      ],
      "payable": false,
      "stateMutability": "view",
      "type": "function"
    },
    {
      "constant": true,
      "inputs": [
        {
          "internalType": "uint256",
          "name": "_projectId",
          "type": "uint256"
        }
      ],
      "name": "getBalance",
      "outputs": [
        {
          "internalType": "uint256",
          "name": "",
          "type": "uint256"
        }
      ],
      "payable": false,
      "stateMutability": "view",
      "type": "function"
    },
    {
      "constant": true,
      "inputs": [
        {
          "internalType": "uint256",
          "name": "_projectId",
          "type": "uint256"
        },
        {
          "internalType": "address",
          "name": "_funder",
          "type": "address"
        }
      ],
      "name": "getFunderBalance",
      "outputs": [
        {
          "internalType": "uint256",
          "name": "",
          "type": "uint256"
        }
      ],
      "payable": false,
      "stateMutability": "view",
      "type": "function"
    },
    {
      "constant": true,
      "inputs": [],
      "name": "getLastProjectId",
      "outputs": [
        {
          "internalType": "uint256",
          "name": "",
          "type": "uint256"
        }
      ],
      "payable": false,
      "stateMutability": "view",
      "type": "function"
    },
    {
      "constant": true,
      "inputs": [
        {
          "internalType": "address",
          "name": "_owner",
          "type": "address"
        }
      ],
      "name": "getOwnerProjects",
      "outputs": [
        {
          "internalType": "uint256[]",
          "name": "",
          "type": "uint256[]"
        }
      ],
      "payable": false,
      "stateMutability": "view",
      "type": "function"
    },
    {
      "constant": true,
      "inputs": [
        {
          "internalType": "address",
          "name": "_user",
          "type": "address"
        }
      ],
      "name": "getUserFundedProjects",
      "outputs": [
        {
          "internalType": "uint256[]",
          "name": "",
          "type": "uint256[]"
        }
      ],
      "payable": false,
      "stateMutability": "view",
      "type": "function"
    },
    {
      "constant": false,
      "inputs": [
        {
          "internalType": "string",
          "name": "_name",
          "type": "string"
        },
        {
          "internalType": "uint32",
          "name": "_goal",
          "type": "uint32"
        }
      ],
      "name": "create",
      "outputs": [
        {
          "internalType": "bool",
          "name": "",
          "type": "bool"
        }
      ],
      "payable": false,
      "stateMutability": "nonpayable",
      "type": "function"
    },
    {
      "constant": false,
      "inputs": [
        {
          "internalType": "uint256",
          "name": "_projectId",
          "type": "uint256"
        }
      ],
      "name": "approve",
      "outputs": [
        {
          "internalType": "bool",
          "name": "",
          "type": "bool"
        }
      ],
      "payable": false,
      "stateMutability": "nonpayable",
      "type": "function"
    },
    {
      "constant": false,
      "inputs": [
        {
          "internalType": "uint256",
          "name": "_projectId",
          "type": "uint256"
        },
        {
          "internalType": "uint256",
          "name": "_amount",
          "type": "uint256"
        }
      ],
      "name": "deposit",
      "outputs": [
        {
          "internalType": "bool",
          "name": "",
          "type": "bool"
        }
      ],
      "payable": false,
      "stateMutability": "nonpayable",
      "type": "function"
    },
    {
      "constant": false,
      "inputs": [
        {
          "internalType": "uint256",
          "name": "_projectId",
          "type": "uint256"
        },
        {
          "internalType": "uint256",
          "name": "_amount",
          "type": "uint256"
        }
      ],
      "name": "withdraw",
      "outputs": [
        {
          "internalType": "bool",
          "name": "",
          "type": "bool"
        }
      ],
      "payable": false,
      "stateMutability": "nonpayable",
      "type": "function"
    },
    {
      "constant": false,
      "inputs": [
        {
          "internalType": "uint256",
          "name": "_projectId",
          "type": "uint256"
        }
      ],
      "name": "close",
      "outputs": [
        {
          "internalType": "bool",
          "name": "",
          "type": "bool"
        }
      ],
      "payable": false,
      "stateMutability": "nonpayable",
      "type": "function"
    },
    {
      "constant": false,
      "inputs": [
        {
          "internalType": "uint256",
          "name": "_projectId",
          "type": "uint256"
        }
      ],
      "name": "distributeFunding",
      "outputs": [
        {
          "internalType": "bool",
          "name": "",
          "type": "bool"
        }
      ],
      "payable": false,
      "stateMutability": "nonpayable",
      "type": "function"
    }
  ],
  "bytecode": "0x608060405234801561001057600080fd5b506040516120b23803806120b28339818101604052602081101561003357600080fd5b8101908080519060200190929190505050806000806101000a81548173ffffffffffffffffffffffffffffffffffffffff021916908373ffffffffffffffffffffffffffffffffffffffff1602179055506000600281905550506120168061009c6000396000f3fe608060405234801561001057600080fd5b506004361061010b5760003560e01c80637910867b116100a2578063c41a360a11610071578063c41a360a146105cf578063d15e46801461063d578063df6ed6cb146106d6578063e2bbb15814610718578063f801f6a2146107685761010b565b80637910867b146104165780639c43b6e21461045c578063a11b2c551461053f578063b759f954146105895761010b565b8063246f220b116100de578063246f220b14610240578063441a3e70146102d95780634d6861a6146103295780636b8ff5741461036f5761010b565b8063066d2e5c146101105780630aebeb4e146101565780631d6b92851461019c5780631e010439146101fe575b600080fd5b61013c6004803603602081101561012657600080fd5b8101908080359060200190929190505050610786565b604051808215151515815260200191505060405180910390f35b6101826004803603602081101561016c57600080fd5b81019080803590602001909291905050506109ec565b604051808215151515815260200191505060405180910390f35b6101e8600480360360408110156101b257600080fd5b8101908080359060200190929190803573ffffffffffffffffffffffffffffffffffffffff169060200190929190505050610b53565b6040518082815260200191505060405180910390f35b61022a6004803603602081101561021457600080fd5b8101908080359060200190929190505050610c0b565b6040518082815260200191505060405180910390f35b6102826004803603602081101561025657600080fd5b81019080803573ffffffffffffffffffffffffffffffffffffffff169060200190929190505050610ca2565b6040518080602001828103825283818151815260200191508051906020019060200280838360005b838110156102c55780820151818401526020810190506102aa565b505050509050019250505060405180910390f35b61030f600480360360408110156102ef57600080fd5b810190808035906020019092919080359060200190929190505050610dd4565b604051808215151515815260200191505060405180910390f35b6103556004803603602081101561033f57600080fd5b8101908080359060200190929190505050611068565b604051808215151515815260200191505060405180910390f35b61039b6004803603602081101561038557600080fd5b810190808035906020019092919050505061110c565b6040518080602001828103825283818151815260200191508051906020019080838360005b838110156103db5780820151818401526020810190506103c0565b50505050905090810190601f1680156104085780820380516001836020036101000a031916815260200191505b509250505060405180910390f35b6104426004803603602081101561042c57600080fd5b810190808035906020019092919050505061123b565b604051808215151515815260200191505060405180910390f35b6105256004803603604081101561047257600080fd5b810190808035906020019064010000000081111561048f57600080fd5b8201836020820111156104a157600080fd5b803590602001918460018302840111640100000000831117156104c357600080fd5b91908080601f016020809104026020016040519081016040528093929190818152602001838380828437600081840152601f19601f820116905080830192505050505050509192919290803563ffffffff1690602001909291905050506112df565b604051808215151515815260200191505060405180910390f35b6105476114ee565b604051808273ffffffffffffffffffffffffffffffffffffffff1673ffffffffffffffffffffffffffffffffffffffff16815260200191505060405180910390f35b6105b56004803603602081101561059f57600080fd5b8101908080359060200190929190505050611513565b604051808215151515815260200191505060405180910390f35b6105fb600480360360208110156105e557600080fd5b810190808035906020019092919050505061160c565b604051808273ffffffffffffffffffffffffffffffffffffffff1673ffffffffffffffffffffffffffffffffffffffff16815260200191505060405180910390f35b61067f6004803603602081101561065357600080fd5b81019080803573ffffffffffffffffffffffffffffffffffffffff1690602001909291905050506116c3565b6040518080602001828103825283818151815260200191508051906020019060200280838360005b838110156106c25780820151818401526020810190506106a7565b505050509050019250505060405180910390f35b610702600480360360208110156106ec57600080fd5b81019080803590602001909291905050506117f5565b6040518082815260200191505060405180910390f35b61074e6004803603604081101561072e57600080fd5b81019080803590602001909291908035906020019092919050505061188c565b604051808215151515815260200191505060405180910390f35b610770611d17565b6040518082815260200191505060405180910390f35b6000600254821080156107c057506001600083815260200190815260200160002060020160019054906101000a900460ff16151560001515145b80156107f357506001600083815260200190815260200160002060020160009054906101000a900460ff16151560011515145b801561086057506001600083815260200190815260200160002060000160009054906101000a900473ffffffffffffffffffffffffffffffffffffffff1673ffffffffffffffffffffffffffffffffffffffff163373ffffffffffffffffffffffffffffffffffffffff16145b6108b5576040517f08c379a0000000000000000000000000000000000000000000000000000000008152600401808060200182810382526056815260200180611ef26056913960600191505060405180910390fd5b6000809054906101000a900473ffffffffffffffffffffffffffffffffffffffff1673ffffffffffffffffffffffffffffffffffffffff166323b872dd303360016000878152602001908152602001600020600401546040518463ffffffff1660e01b8152600401808473ffffffffffffffffffffffffffffffffffffffff1673ffffffffffffffffffffffffffffffffffffffff1681526020018373ffffffffffffffffffffffffffffffffffffffff1673ffffffffffffffffffffffffffffffffffffffff1681526020018281526020019350505050602060405180830381600087803b1580156109a757600080fd5b505af11580156109bb573d6000803e3d6000fd5b505050506040513d60208110156109d157600080fd5b81019080805190602001909291905050505060019050919050565b600060025482108015610a2657506001600083815260200190815260200160002060020160019054906101000a900460ff16151560011515145b8015610a5957506001600083815260200190815260200160002060020160009054906101000a900460ff16151560011515145b8015610ac657506001600083815260200190815260200160002060000160009054906101000a900473ffffffffffffffffffffffffffffffffffffffff1673ffffffffffffffffffffffffffffffffffffffff163373ffffffffffffffffffffffffffffffffffffffff16145b610b1b576040517f08c379a000000000000000000000000000000000000000000000000000000000815260040180806020018281038252604c815260200180611f96604c913960600191505060405180910390fd5b60006001600084815260200190815260200160002060020160016101000a81548160ff02191690831515021790555060019050919050565b60006002548310610baf576040517f08c379a0000000000000000000000000000000000000000000000000000000008152600401808060200182810382526024815260200180611e036024913960400191505060405180910390fd5b6001600084815260200190815260200160002060050160008373ffffffffffffffffffffffffffffffffffffffff1673ffffffffffffffffffffffffffffffffffffffff16815260200190815260200160002054905092915050565b60006002548210610c84576040517f08c379a000000000000000000000000000000000000000000000000000000000815260040180806020018281038252601e8152602001807f67657442616c616e636528293a20496e76616c69642050726f6a65637421000081525060200191505060405180910390fd5b60016000838152602001908152602001600020600401549050919050565b60606000600360008473ffffffffffffffffffffffffffffffffffffffff1673ffffffffffffffffffffffffffffffffffffffff1681526020019081526020016000208054905011610d3f576040517f08c379a000000000000000000000000000000000000000000000000000000000815260040180806020018281038252603c815260200180611dc7603c913960400191505060405180910390fd5b600360008373ffffffffffffffffffffffffffffffffffffffff1673ffffffffffffffffffffffffffffffffffffffff168152602001908152602001600020805480602002602001604051908101604052809291908181526020018280548015610dc857602002820191906000526020600020905b815481526020019060010190808311610db4575b50505050509050919050565b600060025483108015610e0e57506001600084815260200190815260200160002060020160019054906101000a900460ff16151560011515145b8015610e4157506001600084815260200190815260200160002060020160009054906101000a900460ff16151560011515145b8015610ea057506001600084815260200190815260200160002060050160003373ffffffffffffffffffffffffffffffffffffffff1673ffffffffffffffffffffffffffffffffffffffff168152602001908152602001600020548211155b610ef5576040517f08c379a000000000000000000000000000000000000000000000000000000000815260040180806020018281038252604f815260200180611e62604f913960600191505060405180910390fd5b6000809054906101000a900473ffffffffffffffffffffffffffffffffffffffff1673ffffffffffffffffffffffffffffffffffffffff1663095ea7b333846040518363ffffffff1660e01b8152600401808373ffffffffffffffffffffffffffffffffffffffff1673ffffffffffffffffffffffffffffffffffffffff16815260200182815260200192505050602060405180830381600087803b158015610f9d57600080fd5b505af1158015610fb1573d6000803e3d6000fd5b505050506040513d6020811015610fc757600080fd5b810190808051906020019092919050505050816001600085815260200190815260200160002060040160008282540392505081905550816001600085815260200190815260200160002060050160003373ffffffffffffffffffffffffffffffffffffffff1673ffffffffffffffffffffffffffffffffffffffff168152602001908152602001600020600082825403925050819055506001905092915050565b600060025482106110e1576040517f08c379a000000000000000000000000000000000000000000000000000000000815260040180806020018281038252601a8152602001807f69734f70656e28293a20496e76616c69642050726f6a6563742100000000000081525060200191505060405180910390fd5b6001600083815260200190815260200160002060020160019054906101000a900460ff169050919050565b60606002548210611185576040517f08c379a000000000000000000000000000000000000000000000000000000000815260040180806020018281038252601b8152602001807f6765744e616d6528293a20496e76616c69642050726f6a65637421000000000081525060200191505060405180910390fd5b600160008381526020019081526020016000206001018054600181600116156101000203166002900480601f01602080910402602001604051908101604052809291908181526020018280546001816001161561010002031660029004801561122f5780601f106112045761010080835404028352916020019161122f565b820191906000526020600020905b81548152906001019060200180831161121257829003601f168201915b50505050509050919050565b600060025482106112b4576040517f08c379a000000000000000000000000000000000000000000000000000000000815260040180806020018281038252601e8152602001807f6973417070726f76656428293a20496e76616c69642050726f6a65637421000081525060200191505060405180910390fd5b6001600083815260200190815260200160002060020160009054906101000a900460ff169050919050565b60003360016000600254815260200190815260200160002060000160006101000a81548173ffffffffffffffffffffffffffffffffffffffff021916908373ffffffffffffffffffffffffffffffffffffffff160217905550826001600060025481526020019081526020016000206001019080519060200190611364929190611d21565b50600060016000600254815260200190815260200160002060020160006101000a81548160ff0219169083151502179055506001806000600254815260200190815260200160002060020160016101000a81548160ff0219169083151502179055508163ffffffff1660016000600254815260200190815260200160002060030181905550600060016000600254815260200190815260200160002060040181905550600360003373ffffffffffffffffffffffffffffffffffffffff1673ffffffffffffffffffffffffffffffffffffffff168152602001908152602001600020600254908060018154018082558091505090600182039060005260206000200160009091929091909150555060043390806001815401808255809150509060018203906000526020600020016000909192909190916101000a81548173ffffffffffffffffffffffffffffffffffffffff021916908373ffffffffffffffffffffffffffffffffffffffff160217905550506001600254016002819055506001905092915050565b6000809054906101000a900473ffffffffffffffffffffffffffffffffffffffff1681565b60006002548210801561154d57506001600083815260200190815260200160002060020160019054906101000a900460ff16151560011515145b801561158057506001600083815260200190815260200160002060020160009054906101000a900460ff16151560001515145b6115d5576040517f08c379a000000000000000000000000000000000000000000000000000000000815260040180806020018281038252603b815260200180611e27603b913960400191505060405180910390fd5b600180600084815260200190815260200160002060020160006101000a81548160ff02191690831515021790555060019050919050565b60006002548210611685576040517f08c379a000000000000000000000000000000000000000000000000000000000815260040180806020018281038252601c8152602001807f6765744f776e657228293a20496e76616c69642050726f6a656374210000000081525060200191505060405180910390fd5b6001600083815260200190815260200160002060000160009054906101000a900473ffffffffffffffffffffffffffffffffffffffff169050919050565b60606000600560008473ffffffffffffffffffffffffffffffffffffffff1673ffffffffffffffffffffffffffffffffffffffff1681526020019081526020016000208054905011611760576040517f08c379a0000000000000000000000000000000000000000000000000000000008152600401808060200182810382526041815260200180611eb16041913960600191505060405180910390fd5b600560008373ffffffffffffffffffffffffffffffffffffffff1673ffffffffffffffffffffffffffffffffffffffff1681526020019081526020016000208054806020026020016040519081016040528092919081815260200182805480156117e957602002820191906000526020600020905b8154815260200190600101908083116117d5575b50505050509050919050565b6000600254821061186e576040517f08c379a000000000000000000000000000000000000000000000000000000000815260040180806020018281038252601b8152602001807f676574476f616c28293a20496e76616c69642050726f6a65637421000000000081525060200191505060405180910390fd5b60016000838152602001908152602001600020600301549050919050565b6000600254831080156118c657506001600084815260200190815260200160002060020160019054906101000a900460ff16151560011515145b80156118f957506001600084815260200190815260200160002060020160009054906101000a900460ff16151560011515145b80156119055750600082115b61195a576040517f08c379a000000000000000000000000000000000000000000000000000000000815260040180806020018281038252604e815260200180611f48604e913960600191505060405180910390fd5b6000809054906101000a900473ffffffffffffffffffffffffffffffffffffffff1673ffffffffffffffffffffffffffffffffffffffff166323b872dd3330856040518463ffffffff1660e01b8152600401808473ffffffffffffffffffffffffffffffffffffffff1673ffffffffffffffffffffffffffffffffffffffff1681526020018373ffffffffffffffffffffffffffffffffffffffff1673ffffffffffffffffffffffffffffffffffffffff1681526020018281526020019350505050602060405180830381600087803b158015611a3657600080fd5b505af1158015611a4a573d6000803e3d6000fd5b505050506040513d6020811015611a6057600080fd5b810190808051906020019092919050505050816001600085815260200190815260200160002060040160008282540192505081905550816001600085815260200190815260200160002060050160003373ffffffffffffffffffffffffffffffffffffffff1673ffffffffffffffffffffffffffffffffffffffff16815260200190815260200160002060008282540192505081905550600080905060008090505b6001600086815260200190815260200160002060060180549050811015611bb457600160008681526020019081526020016000206006018181548110611b4457fe5b9060005260206000200160009054906101000a900473ffffffffffffffffffffffffffffffffffffffff1673ffffffffffffffffffffffffffffffffffffffff163373ffffffffffffffffffffffffffffffffffffffff161415611ba757600191505b8080600101915050611b02565b50801515600015151415611d0c57600160008581526020019081526020016000206006013390806001815401808255809150509060018203906000526020600020016000909192909190916101000a81548173ffffffffffffffffffffffffffffffffffffffff021916908373ffffffffffffffffffffffffffffffffffffffff16021790555050600560003373ffffffffffffffffffffffffffffffffffffffff1673ffffffffffffffffffffffffffffffffffffffff16815260200190815260200160002084908060018154018082558091505090600182039060005260206000200160009091929091909150555060063390806001815401808255809150509060018203906000526020600020016000909192909190916101000a81548173ffffffffffffffffffffffffffffffffffffffff021916908373ffffffffffffffffffffffffffffffffffffffff160217905550505b600191505092915050565b6000600254905090565b828054600181600116156101000203166002900490600052602060002090601f016020900481019282601f10611d6257805160ff1916838001178555611d90565b82800160010185558215611d90579182015b82811115611d8f578251825591602001919060010190611d74565b5b509050611d9d9190611da1565b5090565b611dc391905b80821115611dbf576000816000905550600101611da7565b5090565b9056fe6765744f776e657250726f6a6563747328293a20496e76616c69642041646472657373202f204e6f2050726f6a6563747320417661696c61626c652167657446756e64657242616c616e636528293a20496e76616c69642050726f6a65637421617070726f766528293a20496e76616c69642050726f6a6563742f50726f6a65637420436c6f7365642f50726f6a65637420417070726f76656421776974686472617728293a20496e76616c69642050726f6a6563742f50726f6a65637420436c6f7365642f50726f6a656374204e4f5420417070726f7665642f496e76616c696420416d6f756e74216765745573657246756e64656450726f6a6563747328293a20496e76616c69642041646472657373202f204e6f2050726f6a6563747320417661696c61626c65216469737472696275746546756e64696e6728293a20496e76616c69642050726f6a6563742f50726f6a656374204f70656e2f50726f6a656374204e4f5420417070726f7665642f556e6b6e6f776e2053656e646572216465706f73697428293a20496e76616c69642050726f6a6563742f50726f6a65637420436c6f7365642f50726f6a656374204e4f5420417070726f7665642f496e76616c696420416d6f756e7421636c6f736528293a20496e76616c69642050726f6a6563742f50726f6a65637420436c6f7365642f50726f6a656374204e4f5420417070726f7665642f556e6b6e6f776e2053656e64657221a265627a7a72315820d658e8d081755b8614c043bec0d9c5e4d57bbb211ebafbfbf1da5add8109dd6964736f6c63430005100032",
  "source": "pragma solidity ^0.5.5;\r\n\r\nimport \"@openzeppelin/contracts/token/ERC20/IERC20.sol\";\r\n\r\ncontract CrowdFunding {\r\n  IERC20 public crowdFundingToken_;\r\n\r\n  struct CrowdFundingProject {\r\n    address owner;\r\n    string name;\r\n    bool approved;\r\n    bool open;\r\n    uint256 goal;\r\n    uint256 balance;\r\n    mapping (address => uint256) fundersBalances;\r\n    address [] funders;\r\n  }\r\n\r\n  mapping (uint256 => CrowdFundingProject) private projects_;\r\n  uint256 private lastProjectId_;\r\n\r\n  mapping (address => uint256 []) private ownerProjects_;\r\n  address [] private owners_;\r\n\r\n  mapping (address => uint256 []) private userFundedProjects_;\r\n  address [] private funders_;\r\n\r\n  constructor(IERC20 _crowdFundingToken) public {\r\n    crowdFundingToken_ = _crowdFundingToken;\r\n    lastProjectId_ = 0;\r\n  }\r\n\r\n  function getOwner(uint256 _projectId) public view returns (address) {\r\n    require (_projectId < lastProjectId_, \"getOwner(): Invalid Project!\");\r\n    return projects_[_projectId].owner;\r\n  }\r\n\r\n  function getName(uint256 _projectId) public view returns (string memory) {\r\n    require (_projectId < lastProjectId_, \"getName(): Invalid Project!\");\r\n    return projects_[_projectId].name;\r\n  }\r\n\r\n  function isApproved(uint256 _projectId) public view returns (bool) {\r\n    require (_projectId < lastProjectId_, \"isApproved(): Invalid Project!\");\r\n    return projects_[_projectId].approved;\r\n  }\r\n\r\n  function isOpen(uint256 _projectId) public view returns (bool) {\r\n    require (_projectId < lastProjectId_, \"isOpen(): Invalid Project!\");\r\n    return projects_[_projectId].open;\r\n  }\r\n\r\n  function getGoal(uint256 _projectId) public view returns (uint256) {\r\n    require (_projectId < lastProjectId_, \"getGoal(): Invalid Project!\");\r\n    return projects_[_projectId].goal;\r\n  }\r\n\r\n  function getBalance(uint256 _projectId) public view returns (uint256) {\r\n    require (_projectId < lastProjectId_, \"getBalance(): Invalid Project!\");\r\n    return projects_[_projectId].balance;\r\n  }\r\n\r\n  function getFunderBalance(uint256 _projectId, address _funder) public view returns (uint256) {\r\n    require (_projectId < lastProjectId_, \"getFunderBalance(): Invalid Project!\");\r\n    return projects_[_projectId].fundersBalances[_funder];\r\n  }\r\n\r\n  function getLastProjectId() public view returns (uint256) {\r\n    return lastProjectId_;\r\n  }\r\n\r\n  function getOwnerProjects(address _owner) public view returns (uint256 [] memory) {\r\n    require (\r\n      ownerProjects_[_owner].length > 0,\r\n      \"getOwnerProjects(): Invalid Address / No Projects Available!\"\r\n    );\r\n\r\n    return ownerProjects_[_owner];\r\n  }\r\n\r\n  function getUserFundedProjects(address _user) public view returns (uint256 [] memory) {\r\n    require (\r\n      userFundedProjects_[_user].length > 0,\r\n      \"getUserFundedProjects(): Invalid Address / No Projects Available!\"\r\n    );\r\n\r\n    return userFundedProjects_[_user];\r\n  }\r\n\r\n  function create(string memory _name, uint32 _goal) public returns (bool) {\r\n    projects_[lastProjectId_].owner = msg.sender;\r\n    projects_[lastProjectId_].name = _name;\r\n    projects_[lastProjectId_].approved = false;\r\n    projects_[lastProjectId_].open = true;\r\n    projects_[lastProjectId_].goal = _goal;\r\n    projects_[lastProjectId_].balance = 0;\r\n\r\n    ownerProjects_[msg.sender].push(lastProjectId_);\r\n    owners_.push(msg.sender);\r\n\r\n    lastProjectId_ = lastProjectId_ + 1;\r\n\r\n    return true;\r\n  }\r\n\r\n  function approve(uint256 _projectId) public returns (bool) {\r\n    require (\r\n      _projectId < lastProjectId_ &&\r\n      true == projects_[_projectId].open &&\r\n      false == projects_[_projectId].approved,\r\n      \"approve(): Invalid Project/Project Closed/Project Approved!\"\r\n    );\r\n\r\n    projects_[_projectId].approved = true;\r\n\r\n    return true;\r\n  }\r\n\r\n  function deposit(uint256 _projectId, uint256 _amount) public returns (bool) {\r\n    require (\r\n      _projectId < lastProjectId_ &&\r\n      true == projects_[_projectId].open &&\r\n      true == projects_[_projectId].approved &&\r\n      _amount > 0,\r\n      \"deposit(): Invalid Project/Project Closed/Project NOT Approved/Invalid Amount!\"\r\n    );\r\n\r\n    crowdFundingToken_.transferFrom(msg.sender, address(this), _amount);\r\n\r\n    projects_[_projectId].balance += _amount;\r\n    projects_[_projectId].fundersBalances[msg.sender] += _amount;\r\n\r\n    bool funderFound = false;\r\n\r\n    for (uint it = 0; it < projects_[_projectId].funders.length; it++) {\r\n      if (msg.sender == projects_[_projectId].funders[it]) {\r\n        funderFound = true;\r\n      }\r\n    }\r\n\r\n    if (false == funderFound) {\r\n      projects_[_projectId].funders.push(msg.sender);\r\n\r\n      userFundedProjects_[msg.sender].push(_projectId);\r\n      funders_.push(msg.sender);\r\n    }\r\n\r\n    return true;\r\n  }\r\n\r\n  function withdraw(uint256 _projectId, uint256 _amount) public returns (bool) {\r\n    require (\r\n      _projectId < lastProjectId_ &&\r\n      true == projects_[_projectId].open &&\r\n      true == projects_[_projectId].approved &&\r\n      _amount <= projects_[_projectId].fundersBalances[msg.sender],\r\n      \"withdraw(): Invalid Project/Project Closed/Project NOT Approved/Invalid Amount!\"\r\n    );\r\n\r\n    crowdFundingToken_.approve(msg.sender, _amount);\r\n\r\n    projects_[_projectId].balance -= _amount;\r\n    projects_[_projectId].fundersBalances[msg.sender] -= _amount;\r\n\r\n    return true;\r\n  }\r\n\r\n  function close(uint256 _projectId) public returns (bool) {\r\n    require (\r\n      _projectId < lastProjectId_ &&\r\n      true == projects_[_projectId].open &&\r\n      true == projects_[_projectId].approved &&\r\n      msg.sender == projects_[_projectId].owner,\r\n      \"close(): Invalid Project/Project Closed/Project NOT Approved/Unknown Sender!\"\r\n    );\r\n\r\n    projects_[_projectId].open = false;\r\n\r\n    return true;\r\n  }\r\n\r\n  function distributeFunding(uint256 _projectId) public returns (bool) {\r\n    require (\r\n      _projectId < lastProjectId_ &&\r\n      false == projects_[_projectId].open &&\r\n      true == projects_[_projectId].approved &&\r\n      msg.sender == projects_[_projectId].owner,\r\n      \"distributeFunding(): Invalid Project/Project Open/Project NOT Approved/Unknown Sender!\"\r\n    );\r\n\r\n    crowdFundingToken_.transferFrom(address(this), msg.sender, projects_[_projectId].balance);\r\n\r\n    return true;\r\n  }\r\n}\r\n",
  "sourcePath": "D:/Computer Science/Projects/CrowdFundingDApp/contracts/CrowdFunding.sol",
  "compiler": {
    "name": "solc",
    "version": "0.5.16+commit.9c3226ce.Emscripten.clang"
  },
  "schemaVersion": "3.4.0",
  "updatedAt": "2022-05-28T13:43:01.646Z",
  "networkType": "ethereum",
  "devdoc": {
    "methods": {}
  },
  "userdoc": {
    "methods": {}
  }
}