{
  "contractName": "IpfsHashStorage",
  "abi": [
    {
      "constant": false,
      "inputs": [
        {
          "internalType": "string",
          "name": "_ipfsHash",
          "type": "string"
        }
      ],
      "name": "setAccountIpfsHash",
      "outputs": [],
      "payable": false,
      "stateMutability": "nonpayable",
      "type": "function"
    },
    {
      "constant": true,
      "inputs": [
        {
          "internalType": "address",
          "name": "_account",
          "type": "address"
        }
      ],
      "name": "getAccountIpfsHash",
      "outputs": [
        {
          "internalType": "string",
          "name": "",
          "type": "string"
        }
      ],
      "payable": false,
      "stateMutability": "view",
      "type": "function"
    },
    {
      "constant": true,
      "inputs": [
        {
          "internalType": "address",
          "name": "_account",
          "type": "address"
        }
      ],
      "name": "accountHasIpfsHash",
      "outputs": [
        {
          "internalType": "bool",
          "name": "",
          "type": "bool"
        }
      ],
      "payable": false,
      "stateMutability": "view",
      "type": "function"
    }
  ],
  "bytecode": "0x608060405234801561001057600080fd5b506106f6806100206000396000f3fe608060405234801561001057600080fd5b50600436106100415760003560e01c806369ad8fb3146100465780637b00f6ca146100a25780637f2a24451461015f575b600080fd5b6100886004803603602081101561005c57600080fd5b81019080803573ffffffffffffffffffffffffffffffffffffffff16906020019092919050505061021a565b604051808215151515815260200191505060405180910390f35b6100e4600480360360208110156100b857600080fd5b81019080803573ffffffffffffffffffffffffffffffffffffffff169060200190929190505050610341565b6040518080602001828103825283818151815260200191508051906020019080838360005b83811015610124578082015181840152602081019050610109565b50505050905090810190601f1680156101515780820380516001836020036101000a031916815260200191505b509250505060405180910390f35b6102186004803603602081101561017557600080fd5b810190808035906020019064010000000081111561019257600080fd5b8201836020820111156101a457600080fd5b803590602001918460018302840111640100000000831117156101c657600080fd5b91908080601f016020809104026020016040519081016040528093929190818152602001838380828437600081840152601f19601f820116905080830192505050505050509192919290505050610486565b005b60008073ffffffffffffffffffffffffffffffffffffffff168273ffffffffffffffffffffffffffffffffffffffff1614156102a1576040517f08c379a00000000000000000000000000000000000000000000000000000000081526004018080602001828103825260238152602001806106536023913960400191505060405180910390fd5b60008090505b600180549050811015610336578273ffffffffffffffffffffffffffffffffffffffff16600182815481106102d857fe5b9060005260206000200160009054906101000a900473ffffffffffffffffffffffffffffffffffffffff1673ffffffffffffffffffffffffffffffffffffffff16141561032957600191505061033c565b80806001019150506102a7565b50600090505b919050565b606061034c8261021a565b151560011515146103a8576040517f08c379a000000000000000000000000000000000000000000000000000000000815260040180806020018281038252602681526020018061069c6026913960400191505060405180910390fd5b6000808373ffffffffffffffffffffffffffffffffffffffff1673ffffffffffffffffffffffffffffffffffffffff1681526020019081526020016000208054600181600116156101000203166002900480601f01602080910402602001604051908101604052809291908181526020018280546001816001161561010002031660029004801561047a5780601f1061044f5761010080835404028352916020019161047a565b820191906000526020600020905b81548152906001019060200180831161045d57829003601f168201915b50505050509050919050565b60003390506104948161021a565b151560001515146104f0576040517f08c379a00000000000000000000000000000000000000000000000000000000081526004018080602001828103825260268152602001806106766026913960400191505060405180910390fd5b816000808373ffffffffffffffffffffffffffffffffffffffff1673ffffffffffffffffffffffffffffffffffffffff16815260200190815260200160002090805190602001906105429291906105ad565b5060018190806001815401808255809150509060018203906000526020600020016000909192909190916101000a81548173ffffffffffffffffffffffffffffffffffffffff021916908373ffffffffffffffffffffffffffffffffffffffff160217905550505050565b828054600181600116156101000203166002900490600052602060002090601f016020900481019282601f106105ee57805160ff191683800117855561061c565b8280016001018555821561061c579182015b8281111561061b578251825591602001919060010190610600565b5b509050610629919061062d565b5090565b61064f91905b8082111561064b576000816000905550600101610633565b5090565b9056fe6163636f756e74486173497066734861736828293a20496e76616c69642055736572217365744163636f756e74497066734861736828293a20496e76616c6964204163636f756e74216765744163636f756e74497066734861736828293a20496e76616c6964204163636f756e7421a265627a7a72315820f8c0fe47283e2c6c55103ae1124ac802bc7742d05a9b915eaeccd9cbeb9a58cc64736f6c63430005100032",
  "source": "pragma solidity ^0.5.5;\r\n\r\ncontract IpfsHashStorage {\r\n  mapping (address => string) accountsIpfsHashes_;\r\n  address[] accounts_;\r\n\r\n  function setAccountIpfsHash(string memory _ipfsHash) public {\r\n    address account = msg.sender;\r\n\r\n    require (false == accountHasIpfsHash(account), \"setAccountIpfsHash(): Invalid Account!\");\r\n\r\n    accountsIpfsHashes_[account] = _ipfsHash;\r\n    accounts_.push(account);\r\n  }\r\n\r\n  function getAccountIpfsHash(address _account) public view returns (string memory) {\r\n    require (true == accountHasIpfsHash(_account), \"getAccountIpfsHash(): Invalid Account!\");\r\n\r\n    return accountsIpfsHashes_[_account];\r\n  }\r\n\r\n  function accountHasIpfsHash(address _account) public view returns (bool) {\r\n    require (_account != address(0), \"accountHasIpfsHash(): Invalid User!\");\r\n\r\n    for (uint it = 0; it < accounts_.length; it++) {\r\n      if (accounts_[it] == _account) {\r\n        return true;\r\n      }\r\n    }\r\n\r\n    return false;\r\n  }\r\n}\r\n",
  "sourcePath": "D:/Computer Science/Projects/CrowdFundingDApp/contracts/IpfsHashStorage.sol",
  "compiler": {
    "name": "solc",
    "version": "0.5.16+commit.9c3226ce.Emscripten.clang"
  },
  "schemaVersion": "3.4.0",
  "updatedAt": "2022-05-28T13:43:01.683Z",
  "networkType": "ethereum",
  "devdoc": {
    "methods": {}
  },
  "userdoc": {
    "methods": {}
  }
}