{
  "contractName": "IpfsHashStorage",
  "abi": [
    {
      "constant": false,
      "inputs": [
        {
          "internalType": "string",
          "name": "_ipfsHash",
          "type": "string"
        }
      ],
      "name": "setAccountIpfsHash",
      "outputs": [],
      "payable": false,
      "stateMutability": "nonpayable",
      "type": "function"
    },
    {
      "constant": true,
      "inputs": [
        {
          "internalType": "address",
          "name": "_account",
          "type": "address"
        }
      ],
      "name": "getAccountIpfsHash",
      "outputs": [
        {
          "internalType": "string",
          "name": "",
          "type": "string"
        }
      ],
      "payable": false,
      "stateMutability": "view",
      "type": "function"
    },
    {
      "constant": true,
      "inputs": [],
      "name": "getAccounts",
      "outputs": [
        {
          "internalType": "address[]",
          "name": "",
          "type": "address[]"
        }
      ],
      "payable": false,
      "stateMutability": "view",
      "type": "function"
    },
    {
      "constant": true,
      "inputs": [
        {
          "internalType": "address",
          "name": "_account",
          "type": "address"
        }
      ],
      "name": "accountHasIpfsHash",
      "outputs": [
        {
          "internalType": "bool",
          "name": "",
          "type": "bool"
        }
      ],
      "payable": false,
      "stateMutability": "view",
      "type": "function"
    }
  ],
  "bytecode": "0x608060405234801561001057600080fd5b506107ee806100206000396000f3fe608060405234801561001057600080fd5b506004361061004c5760003560e01c806369ad8fb3146100515780637b00f6ca146100ad5780637f2a24451461016a5780638a48ac0314610225575b600080fd5b6100936004803603602081101561006757600080fd5b81019080803573ffffffffffffffffffffffffffffffffffffffff169060200190929190505050610284565b604051808215151515815260200191505060405180910390f35b6100ef600480360360208110156100c357600080fd5b81019080803573ffffffffffffffffffffffffffffffffffffffff1690602001909291905050506103ab565b6040518080602001828103825283818151815260200191508051906020019080838360005b8381101561012f578082015181840152602081019050610114565b50505050905090810190601f16801561015c5780820380516001836020036101000a031916815260200191505b509250505060405180910390f35b6102236004803603602081101561018057600080fd5b810190808035906020019064010000000081111561019d57600080fd5b8201836020820111156101af57600080fd5b803590602001918460018302840111640100000000831117156101d157600080fd5b91908080601f016020809104026020016040519081016040528093929190818152602001838380828437600081840152601f19601f8201169050808301925050505050505091929192905050506104f0565b005b61022d610617565b6040518080602001828103825283818151815260200191508051906020019060200280838360005b83811015610270578082015181840152602081019050610255565b505050509050019250505060405180910390f35b60008073ffffffffffffffffffffffffffffffffffffffff168273ffffffffffffffffffffffffffffffffffffffff16141561030b576040517f08c379a000000000000000000000000000000000000000000000000000000000815260040180806020018281038252602381526020018061074b6023913960400191505060405180910390fd5b60008090505b6001805490508110156103a0578273ffffffffffffffffffffffffffffffffffffffff166001828154811061034257fe5b9060005260206000200160009054906101000a900473ffffffffffffffffffffffffffffffffffffffff1673ffffffffffffffffffffffffffffffffffffffff1614156103935760019150506103a6565b8080600101915050610311565b50600090505b919050565b60606103b682610284565b15156001151514610412576040517f08c379a00000000000000000000000000000000000000000000000000000000081526004018080602001828103825260268152602001806107946026913960400191505060405180910390fd5b6000808373ffffffffffffffffffffffffffffffffffffffff1673ffffffffffffffffffffffffffffffffffffffff1681526020019081526020016000208054600181600116156101000203166002900480601f0160208091040260200160405190810160405280929190818152602001828054600181600116156101000203166002900480156104e45780601f106104b9576101008083540402835291602001916104e4565b820191906000526020600020905b8154815290600101906020018083116104c757829003601f168201915b50505050509050919050565b60003390506104fe81610284565b1515600015151461055a576040517f08c379a000000000000000000000000000000000000000000000000000000000815260040180806020018281038252602681526020018061076e6026913960400191505060405180910390fd5b816000808373ffffffffffffffffffffffffffffffffffffffff1673ffffffffffffffffffffffffffffffffffffffff16815260200190815260200160002090805190602001906105ac9291906106a5565b5060018190806001815401808255809150509060018203906000526020600020016000909192909190916101000a81548173ffffffffffffffffffffffffffffffffffffffff021916908373ffffffffffffffffffffffffffffffffffffffff160217905550505050565b6060600180548060200260200160405190810160405280929190818152602001828054801561069b57602002820191906000526020600020905b8160009054906101000a900473ffffffffffffffffffffffffffffffffffffffff1673ffffffffffffffffffffffffffffffffffffffff1681526020019060010190808311610651575b5050505050905090565b828054600181600116156101000203166002900490600052602060002090601f016020900481019282601f106106e657805160ff1916838001178555610714565b82800160010185558215610714579182015b828111156107135782518255916020019190600101906106f8565b5b5090506107219190610725565b5090565b61074791905b8082111561074357600081600090555060010161072b565b5090565b9056fe6163636f756e74486173497066734861736828293a20496e76616c69642055736572217365744163636f756e74497066734861736828293a20496e76616c6964204163636f756e74216765744163636f756e74497066734861736828293a20496e76616c6964204163636f756e7421a265627a7a7231582047c8ad762eea465b4e59d3803c8b0a00dee70fb3c9ace63b6a3809cad98458b964736f6c63430005100032",
  "source": "pragma solidity ^0.5.5;\r\n\r\ncontract IpfsHashStorage {\r\n  mapping (address => string) accountsIpfsHashes_;\r\n  address[] accounts_;\r\n\r\n  function setAccountIpfsHash(string memory _ipfsHash) public {\r\n    address account = msg.sender;\r\n\r\n    require (false == accountHasIpfsHash(account), \"setAccountIpfsHash(): Invalid Account!\");\r\n\r\n    accountsIpfsHashes_[account] = _ipfsHash;\r\n    accounts_.push(account);\r\n  }\r\n\r\n  function getAccountIpfsHash(address _account) public view returns (string memory) {\r\n    require (true == accountHasIpfsHash(_account), \"getAccountIpfsHash(): Invalid Account!\");\r\n\r\n    return accountsIpfsHashes_[_account];\r\n  }\r\n\r\n  function getAccounts() public view returns (address [] memory) {\r\n    return accounts_;\r\n  }\r\n\r\n  function accountHasIpfsHash(address _account) public view returns (bool) {\r\n    require (_account != address(0), \"accountHasIpfsHash(): Invalid User!\");\r\n\r\n    for (uint it = 0; it < accounts_.length; it++) {\r\n      if (accounts_[it] == _account) {\r\n        return true;\r\n      }\r\n    }\r\n\r\n    return false;\r\n  }\r\n}\r\n",
  "sourcePath": "D:/Computer Science/Projects/CrowdFundingDApp/contracts/IpfsHashStorage.sol",
  "compiler": {
    "name": "solc",
    "version": "0.5.16+commit.9c3226ce.Emscripten.clang"
  },
  "schemaVersion": "3.4.0",
  "updatedAt": "2022-06-29T10:54:48.438Z",
  "networkType": "ethereum",
  "devdoc": {
    "methods": {}
  },
  "userdoc": {
    "methods": {}
  }
}